{"abi":[{"type":"constructor","inputs":[{"name":"authorizedWorkflow","type":"address","internalType":"address"}],"stateMutability":"nonpayable"},{"type":"function","name":"DEFAULT_ADMIN_ROLE","inputs":[],"outputs":[{"name":"","type":"bytes32","internalType":"bytes32"}],"stateMutability":"view"},{"type":"function","name":"WORKFLOW_ROLE","inputs":[],"outputs":[{"name":"","type":"bytes32","internalType":"bytes32"}],"stateMutability":"view"},{"type":"function","name":"deactivateCovenant","inputs":[{"name":"loanId","type":"bytes32","internalType":"bytes32"},{"name":"covenantName","type":"string","internalType":"string"}],"outputs":[],"stateMutability":"nonpayable"},{"type":"function","name":"getCovenant","inputs":[{"name":"loanId","type":"bytes32","internalType":"bytes32"},{"name":"covenantName","type":"string","internalType":"string"}],"outputs":[{"name":"name","type":"string","internalType":"string"},{"name":"metricDefinition","type":"string","internalType":"string"},{"name":"threshold","type":"uint256","internalType":"uint256"},{"name":"thresholdType","type":"string","internalType":"string"},{"name":"ebitdaAdjustments","type":"string","internalType":"string"},{"name":"isActive","type":"bool","internalType":"bool"}],"stateMutability":"view"},{"type":"function","name":"getCovenantNames","inputs":[{"name":"loanId","type":"bytes32","internalType":"bytes32"}],"outputs":[{"name":"","type":"string[]","internalType":"string[]"}],"stateMutability":"view"},{"type":"function","name":"getLoanSchema","inputs":[{"name":"loanId","type":"bytes32","internalType":"bytes32"}],"outputs":[{"name":"tokenAddress","type":"address","internalType":"address"},{"name":"principalAmount","type":"uint256","internalType":"uint256"},{"name":"onboardingTimestamp","type":"uint256","internalType":"uint256"},{"name":"reportingFrequency","type":"uint256","internalType":"uint256"},{"name":"covenantNames","type":"string[]","internalType":"string[]"}],"stateMutability":"view"},{"type":"function","name":"getRegisteredLoanCount","inputs":[],"outputs":[{"name":"","type":"uint256","internalType":"uint256"}],"stateMutability":"view"},{"type":"function","name":"getRoleAdmin","inputs":[{"name":"role","type":"bytes32","internalType":"bytes32"}],"outputs":[{"name":"","type":"bytes32","internalType":"bytes32"}],"stateMutability":"view"},{"type":"function","name":"grantRole","inputs":[{"name":"role","type":"bytes32","internalType":"bytes32"},{"name":"account","type":"address","internalType":"address"}],"outputs":[],"stateMutability":"nonpayable"},{"type":"function","name":"hasRole","inputs":[{"name":"role","type":"bytes32","internalType":"bytes32"},{"name":"account","type":"address","internalType":"address"}],"outputs":[{"name":"","type":"bool","internalType":"bool"}],"stateMutability":"view"},{"type":"function","name":"isLoanRegistered","inputs":[{"name":"loanId","type":"bytes32","internalType":"bytes32"}],"outputs":[{"name":"","type":"bool","internalType":"bool"}],"stateMutability":"view"},{"type":"function","name":"registerLoan","inputs":[{"name":"loanId","type":"bytes32","internalType":"bytes32"},{"name":"tokenAddress","type":"address","internalType":"address"},{"name":"principalAmount","type":"uint256","internalType":"uint256"},{"name":"reportingFrequency","type":"uint256","internalType":"uint256"},{"name":"covenantNames","type":"string[]","internalType":"string[]"},{"name":"metricDefinitions","type":"string[]","internalType":"string[]"},{"name":"thresholds","type":"uint256[]","internalType":"uint256[]"},{"name":"thresholdTypes","type":"string[]","internalType":"string[]"},{"name":"ebitdaAdjustments","type":"string[]","internalType":"string[]"}],"outputs":[],"stateMutability":"nonpayable"},{"type":"function","name":"registeredLoans","inputs":[{"name":"","type":"uint256","internalType":"uint256"}],"outputs":[{"name":"","type":"bytes32","internalType":"bytes32"}],"stateMutability":"view"},{"type":"function","name":"renounceRole","inputs":[{"name":"role","type":"bytes32","internalType":"bytes32"},{"name":"callerConfirmation","type":"address","internalType":"address"}],"outputs":[],"stateMutability":"nonpayable"},{"type":"function","name":"revokeRole","inputs":[{"name":"role","type":"bytes32","internalType":"bytes32"},{"name":"account","type":"address","internalType":"address"}],"outputs":[],"stateMutability":"nonpayable"},{"type":"function","name":"supportsInterface","inputs":[{"name":"interfaceId","type":"bytes4","internalType":"bytes4"}],"outputs":[{"name":"","type":"bool","internalType":"bool"}],"stateMutability":"view"},{"type":"function","name":"updateCovenantThreshold","inputs":[{"name":"loanId","type":"bytes32","internalType":"bytes32"},{"name":"covenantName","type":"string","internalType":"string"},{"name":"newThreshold","type":"uint256","internalType":"uint256"}],"outputs":[],"stateMutability":"nonpayable"},{"type":"event","name":"CovenantAdded","inputs":[{"name":"loanId","type":"bytes32","indexed":true,"internalType":"bytes32"},{"name":"covenantName","type":"string","indexed":false,"internalType":"string"},{"name":"threshold","type":"uint256","indexed":false,"internalType":"uint256"},{"name":"thresholdType","type":"string","indexed":false,"internalType":"string"}],"anonymous":false},{"type":"event","name":"CovenantDeactivated","inputs":[{"name":"loanId","type":"bytes32","indexed":true,"internalType":"bytes32"},{"name":"covenantName","type":"string","indexed":false,"internalType":"string"}],"anonymous":false},{"type":"event","name":"CovenantUpdated","inputs":[{"name":"loanId","type":"bytes32","indexed":true,"internalType":"bytes32"},{"name":"covenantName","type":"string","indexed":false,"internalType":"string"},{"name":"newThreshold","type":"uint256","indexed":false,"internalType":"uint256"}],"anonymous":false},{"type":"event","name":"LoanRegistered","inputs":[{"name":"loanId","type":"bytes32","indexed":true,"internalType":"bytes32"},{"name":"tokenAddress","type":"address","indexed":true,"internalType":"address"},{"name":"principalAmount","type":"uint256","indexed":false,"internalType":"uint256"},{"name":"covenantCount","type":"uint256","indexed":false,"internalType":"uint256"},{"name":"timestamp","type":"uint256","indexed":false,"internalType":"uint256"}],"anonymous":false},{"type":"event","name":"RoleAdminChanged","inputs":[{"name":"role","type":"bytes32","indexed":true,"internalType":"bytes32"},{"name":"previousAdminRole","type":"bytes32","indexed":true,"internalType":"bytes32"},{"name":"newAdminRole","type":"bytes32","indexed":true,"internalType":"bytes32"}],"anonymous":false},{"type":"event","name":"RoleGranted","inputs":[{"name":"role","type":"bytes32","indexed":true,"internalType":"bytes32"},{"name":"account","type":"address","indexed":true,"internalType":"address"},{"name":"sender","type":"address","indexed":true,"internalType":"address"}],"anonymous":false},{"type":"event","name":"RoleRevoked","inputs":[{"name":"role","type":"bytes32","indexed":true,"internalType":"bytes32"},{"name":"account","type":"address","indexed":true,"internalType":"address"},{"name":"sender","type":"address","indexed":true,"internalType":"address"}],"anonymous":false},{"type":"error","name":"AccessControlBadConfirmation","inputs":[]},{"type":"error","name":"AccessControlUnauthorizedAccount","inputs":[{"name":"account","type":"address","internalType":"address"},{"name":"neededRole","type":"bytes32","internalType":"bytes32"}]},{"type":"error","name":"ConvenantNotFound","inputs":[{"name":"loanId","type":"bytes32","internalType":"bytes32"},{"name":"covenantName","type":"string","internalType":"string"}]},{"type":"error","name":"InvalidCovenantArray","inputs":[]},{"type":"error","name":"InvalidTokenAddress","inputs":[]},{"type":"error","name":"LoanAlreadyRegistered","inputs":[{"name":"loanId","type":"bytes32","internalType":"bytes32"}]},{"type":"error","name":"LoanNotRegistered","inputs":[{"name":"loanId","type":"bytes32","internalType":"bytes32"}]}],"bytecode":{"object":"0x60803461007257601f61173938819003918201601f19168301916001600160401b038311848410176100765780849260209460405283398101031261007257516001600160a01b0381168103610072576100629061005c3361008a565b50610100565b5060405161154590816101948239f35b5f80fd5b634e487b7160e01b5f52604160045260245ffd5b6001600160a01b0381165f9081525f5160206117195f395f51905f52602052604090205460ff166100fb576001600160a01b03165f8181525f5160206117195f395f51905f5260205260408120805460ff191660011790553391905f5160206116d95f395f51905f528180a4600190565b505f90565b6001600160a01b0381165f9081525f5160206116f95f395f51905f52602052604090205460ff166100fb576001600160a01b03165f8181525f5160206116f95f395f51905f5260205260408120805460ff191660011790553391907f27474d19bed8c237b6f0ac3a8e704c5f2dc7c7f0e86a42e967d95cfc461c1d22905f5160206116d95f395f51905f529080a460019056fe6101c06040526004361015610012575f80fd5b5f3560e01c80630137f49314610ec057806301ffc9a714610e6a578063248a9ca314610e385780632f2ff15d14610dfb57806336568abe14610db75780633ab6613a1461055857806351d274de1461050a57806389f75e8a146104d25780638aa1fef7146104205780638bb7e473146104035780638ef5c48d146102cb57806391d148541461028357806393de0af914610249578063a217fddf1461022f578063bc09792f146101fd578063c3d8b3401461011d5763d547741f146100d5575f80fd5b34610119576040366003190112610119576101176004356100f4610fba565b9061011261010d825f525f602052600160405f20015490565b6113cf565b61148f565b005b5f80fd5b34610119576060366003190112610119576004356024356001600160401b03811161011957610150903690600401611018565b91906044359261015e611360565b61016783611333565b825f526001602052610180600660405f200182846112e0565b9361018b85546110b4565b156101da578060027f2c0c38f77f6e07d8cdab906f404dbca1bf502456d9730e24e48004198a776e71959601556101cf6040519384936040855260408501916112f9565b9060208301520390a2005b5060405163b93204b760e01b81529182916101f9918560048501611319565b0390fd5b34610119576020366003190112610119576004355f526001602052602060ff600760405f200154166040519015158152f35b34610119575f3660031901126101195760206040515f8152f35b34610119575f3660031901126101195760206040517f27474d19bed8c237b6f0ac3a8e704c5f2dc7c7f0e86a42e967d95cfc461c1d228152f35b346101195760403660031901126101195761029c610fba565b6004355f525f60205260405f209060018060a01b03165f52602052602060ff60405f2054166040519015158152f35b34610119576102d936611045565b91906102e482611333565b815f5260016020526102fd600660405f200184836112e0565b916040519261030b84611078565b610314816110ec565b8452610322600182016110ec565b936020810194855260028201549360408201948552610343600384016110ec565b936060830194855260ff600561035b600487016110ec565b95608086019687520154169760a084019815158952835151156103e6575050506103dc926103ad96926103bb6103ce935197519651925191519451151596604051998a9960c08b5260c08b0190610f3e565b9089820360208b0152610f3e565b9160408801528682036060880152610f3e565b908482036080860152610f3e565b9060a08301520390f35b6101f99060405193849363b93204b760e01b855260048501611319565b34610119575f366003190112610119576020600254604051908152f35b346101195761042e36611045565b9190610438611360565b61044182611333565b815f52600160205261045a600660405f200184836112e0565b9261046584546110b4565b156104b45760057f277d87b869727f9eaea1381ffc63a3674cba7eef4e2009d7d4b95c4b6ffb3b2193940160ff1981541690556104af6040519283926020845260208401916112f9565b0390a2005b60405163b93204b760e01b81529182916101f9918560048501611319565b3461011957602036600319011261011957600435600254811015610119576104fb602091611000565b90549060031b1c604051908152f35b346101195760203660031901126101195760043561052781611333565b5f526001602052610554610540600560405f200161118c565b604051918291602083526020830190610f62565b0390f35b346101195761012036600319011261011957610572610fba565b610180526084356001600160401b03811161011957610595903690600401610fd0565b6101a05260c05260a4356001600160401b038111610119576105bb903690600401610fd0565b60a0526101405260c4356001600160401b038111610119576105e1903690600401610fd0565b610100526101605260e4356001600160401b03811161011957610608903690600401610fd0565b60e05261012052610104356001600160401b0381116101195761062f903690600401610fd0565b60805261063a611360565b6004355f52600160205260ff600760405f20015416610da257610180516001600160a01b031615610d93576101a05115610d565760a0516101a05114801590610d83575b8015610d74575b8015610d65575b610d56576004355f52600160205260405f209060043582556001820160018060a01b0361018051166bffffffffffffffffffffffff60a01b8254161790556044356002830155426003830155606435600483015560078201600160ff198254161790555f915b6101a051831061079357600254600160401b81101561077f5780600161071b9201600255611000565b81549060031b90600435821b915f19901b191617905560405160443581526101a051602082015242604082015260018060a01b036101805116907f25bee5063b2a922264e207d82efab5ad6b05550795e0f26ba6fe05cd7077543b606060043592a3005b634e487b7160e01b5f52604160045260245ffd5b6107a3836101a05160c0516111ec565b6005830154600160401b81101561077f576001810160058501819055811015610d4257600584015f5260205f2001916001600160401b03821161077f576107f4826107ee85546110b4565b8561122d565b5f90601f8311600114610cdc5761082292915f9183610cd1575b50508160011b915f199060031b1c19161790565b90555b826108ce6108a96108a061083f846101a05160c0516111ec565b93906108bf886108558860a051610140516111ec565b96906108688a610100516101605161128b565b359761088961087d8c60e051610120516111ec565b9f9095608051906111ec565b9890966040519b6108998d611078565b369161129b565b8a52369161129b565b9a602088019b8c5260408801968752369161129b565b9260608601938452369161129b565b9160808401928352600160a08501526108fa6108f0866101a05160c0516111ec565b60068901916112e0565b9784518051906001600160401b03821161077f576109228261091c8d546110b4565b8d61122d565b602090601f8311600114610c6e5761095092915f9183610c005750508160011b915f199060031b1c19161790565b89555b51805160018a01916001600160401b03821161077f57610977826107ee85546110b4565b602090601f8311600114610c0b576109a592915f9183610c005750508160011b915f199060031b1c19161790565b90555b51600288015551805160038801916001600160401b03821161077f576109d2826107ee85546110b4565b602090601f8311600114610b9d57610a0092915f9183610b925750508160011b915f199060031b1c19161790565b90555b519485516001600160401b03811161077f57610a2f81610a2660048501546110b4565b6004850161122d565b602096601f8211600114610b1f5791610a6782600593600198999a60a0965f92610b145750508160011b915f199060031b1c19161790565b60048201555b01910151151560ff801983541691161790557fe179c7aea0ef47bb61c5502f5a87afaa640dd4f4c97d6e1be84fa1c7e97fa984610ab0826101a05160c0516111ec565b9190610ac384610100516101605161128b565b3592610b09610ad88660e051610120516111ec565b610af26040979297519586956060875260608701916112f9565b9160208501528382036040850152600435966112f9565b0390a20191906106f2565b015190508b8061080e565b96600483015f52805f20975f5b601f1984168110610b7a575082600197989960a095938993600596601f19811610610b62575b505050811b016004820155610a6d565b01515f1960f88460031b161c191690558a8080610b52565b818301518a5560019099019860209283019201610b2c565b015190508a8061080e565b90601f19831691845f52815f20925f5b818110610be85750908460019594939210610bd0575b505050811b019055610a03565b01515f1960f88460031b161c19169055898080610bc3565b92936020600181928786015181550195019301610bad565b015190508c8061080e565b90601f19831691845f52815f20925f5b818110610c565750908460019594939210610c3e575b505050811b0190556109a8565b01515f1960f88460031b161c191690558b8080610c31565b92936020600181928786015181550195019301610c1b565b90601f198316918c5f52815f20925f5b818110610cb95750908460019594939210610ca1575b505050811b018955610953565b01515f1960f88460031b161c191690558b8080610c94565b92936020600181928786015181550195019301610c7e565b01359050878061080e565b835f5260205f20915f5b601f1985168110610d2a575090839291600194601f19811610610d11575b505050811b019055610825565b01355f19600384901b60f8161c19169055868080610d04565b82820135845560019093019260209182019101610ce6565b634e487b7160e01b5f52603260045260245ffd5b630ffa118160e01b5f5260045ffd5b506080516101a051141561068c565b5060e0516101a0511415610685565b50610100516101a051141561067e565b630f58058360e11b5f5260045ffd5b63c343b2ef60e01b5f5260043560045260245ffd5b3461011957604036600319011261011957610dd0610fba565b336001600160a01b03821603610dec576101179060043561148f565b63334bd91960e11b5f5260045ffd5b3461011957604036600319011261011957610117600435610e1a610fba565b90610e3361010d825f525f602052600160405f20015490565b611407565b34610119576020366003190112610119576020610e626004355f525f602052600160405f20015490565b604051908152f35b346101195760203660031901126101195760043563ffffffff60e01b811680910361011957602090637965db0b60e01b8114908115610eaf575b506040519015158152f35b6301ffc9a760e01b14905082610ea4565b3461011957602036600319011261011957600435610edd81611333565b5f52600160205260405f2060018060a01b03600182015416610554600283015492600381015490610f1560056004830154920161118c565b91604051958695865260208601526040850152606084015260a0608084015260a0830190610f62565b805180835260209291819084018484015e5f828201840152601f01601f1916010190565b9080602083519182815201916020808360051b8301019401925f915b838310610f8d57505050505090565b9091929394602080610fab600193601f198682030187528951610f3e565b97019301930191939290610f7e565b602435906001600160a01b038216820361011957565b9181601f84011215610119578235916001600160401b038311610119576020808501948460051b01011161011957565b600254811015610d425760025f5260205f2001905f90565b9181601f84011215610119578235916001600160401b038311610119576020838186019501011161011957565b9060406003198301126101195760043591602435906001600160401b0382116101195761107491600401611018565b9091565b60c081019081106001600160401b0382111761077f57604052565b90601f801991011681019081106001600160401b0382111761077f57604052565b90600182811c921680156110e2575b60208310146110ce57565b634e487b7160e01b5f52602260045260245ffd5b91607f16916110c3565b9060405191825f8254926110ff846110b4565b808452936001811690811561116a5750600114611126575b5061112492500383611093565b565b90505f9291925260205f20905f915b81831061114e575050906020611124928201015f611117565b6020919350806001915483858901015201910190918492611135565b90506020925061112494915060ff191682840152151560051b8201015f611117565b9081546001600160401b03811161077f57604051926111b160208360051b0185611093565b81845260208401905f5260205f205f915b8383106111cf5750505050565b6001602081926111de856110ec565b8152019201920191906111c2565b9190811015610d425760051b81013590601e19813603018212156101195701908135916001600160401b038311610119576020018236038113610119579190565b919091601f831161123e575b505050565b81831161124a57505050565b5f5260205f206020601f830160051c9210611283575b81601f9101920160051c03905f5b82811015611239575f8282015560010161126e565b5f9150611260565b9190811015610d425760051b0190565b9291926001600160401b03821161077f57604051916112c4601f8201601f191660200184611093565b829481845281830111610119578281602093845f960137010152565b6020919283604051948593843782019081520301902090565b908060209392818452848401375f828201840152601f01601f1916010190565b6040906113309492815281602082015201916112f9565b90565b805f52600160205260ff600760405f200154161561134e5750565b634607cd3160e11b5f5260045260245ffd5b335f9081527f88b5e9d578fd2c8ef697d9eaf521eed09df8abdd2177a8b24330be81f4cea85e602052604090205460ff161561139857565b63e2517d3f60e01b5f52336004527f27474d19bed8c237b6f0ac3a8e704c5f2dc7c7f0e86a42e967d95cfc461c1d2260245260445ffd5b5f8181526020818152604080832033845290915290205460ff16156113f15750565b63e2517d3f60e01b5f523360045260245260445ffd5b5f818152602081815260408083206001600160a01b038616845290915290205460ff16611489575f818152602081815260408083206001600160a01b0395909516808452949091528120805460ff19166001179055339291907f2f8788117e7eff1d82e926ec794901d17c78024a50270940304540a733656f0d9080a4600190565b50505f90565b5f818152602081815260408083206001600160a01b038616845290915290205460ff1615611489575f818152602081815260408083206001600160a01b0395909516808452949091528120805460ff19169055339291907ff6391f5c32d9c69d2a47ea670b442974b53935d1edc7fd64eb21e047a839171b9080a460019056fea26469706673582212201de6d3f94a4df7977cb70905ab81a056d2642e807d21b14842ab8da4444ae87264736f6c634300082100332f8788117e7eff1d82e926ec794901d17c78024a50270940304540a733656f0d88b5e9d578fd2c8ef697d9eaf521eed09df8abdd2177a8b24330be81f4cea85ead3228b676f7d3cd4284a5443f17f1962b36e491b30a40b2405849e597ba5fb5","linkReferences":{}},"methodIdentifiers":{"DEFAULT_ADMIN_ROLE()":"a217fddf","WORKFLOW_ROLE()":"93de0af9","deactivateCovenant(bytes32,string)":"8aa1fef7","getCovenant(bytes32,string)":"8ef5c48d","getCovenantNames(bytes32)":"51d274de","getLoanSchema(bytes32)":"0137f493","getRegisteredLoanCount()":"8bb7e473","getRoleAdmin(bytes32)":"248a9ca3","grantRole(bytes32,address)":"2f2ff15d","hasRole(bytes32,address)":"91d14854","isLoanRegistered(bytes32)":"bc09792f","registerLoan(bytes32,address,uint256,uint256,string[],string[],uint256[],string[],string[])":"3ab6613a","registeredLoans(uint256)":"89f75e8a","renounceRole(bytes32,address)":"36568abe","revokeRole(bytes32,address)":"d547741f","supportsInterface(bytes4)":"01ffc9a7","updateCovenantThreshold(bytes32,string,uint256)":"c3d8b340"},"id":23}