{"abi":[{"type":"constructor","inputs":[{"name":"authorizedWorkflow","type":"address","internalType":"address"}],"stateMutability":"nonpayable"},{"type":"function","name":"DEFAULT_ADMIN_ROLE","inputs":[],"outputs":[{"name":"","type":"bytes32","internalType":"bytes32"}],"stateMutability":"view"},{"type":"function","name":"WORKFLOW_ROLE","inputs":[],"outputs":[{"name":"","type":"bytes32","internalType":"bytes32"}],"stateMutability":"view"},{"type":"function","name":"activeBreaches","inputs":[{"name":"","type":"uint256","internalType":"uint256"}],"outputs":[{"name":"","type":"bytes32","internalType":"bytes32"}],"stateMutability":"view"},{"type":"function","name":"breachCount","inputs":[{"name":"","type":"bytes32","internalType":"bytes32"}],"outputs":[{"name":"","type":"uint256","internalType":"uint256"}],"stateMutability":"view"},{"type":"function","name":"deactivateLoan","inputs":[{"name":"loanId","type":"bytes32","internalType":"bytes32"}],"outputs":[],"stateMutability":"nonpayable"},{"type":"function","name":"getActiveBreaches","inputs":[],"outputs":[{"name":"","type":"bytes32[]","internalType":"bytes32[]"}],"stateMutability":"view"},{"type":"function","name":"getCovenantStatus","inputs":[{"name":"loanId","type":"bytes32","internalType":"bytes32"},{"name":"covenantName","type":"string","internalType":"string"}],"outputs":[{"name":"status","type":"uint8","internalType":"enum LoanHealthFeed.CovenantStatus"},{"name":"calculatedValue","type":"uint256","internalType":"uint256"},{"name":"threshold","type":"uint256","internalType":"uint256"},{"name":"confidenceScore","type":"uint256","internalType":"uint256"},{"name":"trend","type":"uint8","internalType":"enum LoanHealthFeed.TrendIndicator"}],"stateMutability":"view"},{"type":"function","name":"getHistoricalReport","inputs":[{"name":"loanId","type":"bytes32","internalType":"bytes32"},{"name":"reportIndex","type":"uint256","internalType":"uint256"}],"outputs":[{"name":"overallStatus","type":"uint8","internalType":"enum LoanHealthFeed.CovenantStatus"},{"name":"overallTrend","type":"uint8","internalType":"enum LoanHealthFeed.TrendIndicator"},{"name":"overallConfidenceScore","type":"uint256","internalType":"uint256"},{"name":"reportTimestamp","type":"uint256","internalType":"uint256"},{"name":"riskNarrative","type":"string","internalType":"string"}],"stateMutability":"view"},{"type":"function","name":"getLatestCovenantReports","inputs":[{"name":"loanId","type":"bytes32","internalType":"bytes32"}],"outputs":[{"name":"","type":"tuple[]","internalType":"struct LoanHealthFeed.CovenantReport[]","components":[{"name":"covenantName","type":"string","internalType":"string"},{"name":"status","type":"uint8","internalType":"enum LoanHealthFeed.CovenantStatus"},{"name":"calculatedValue","type":"uint256","internalType":"uint256"},{"name":"threshold","type":"uint256","internalType":"uint256"},{"name":"confidenceScore","type":"uint256","internalType":"uint256"},{"name":"trend","type":"uint8","internalType":"enum LoanHealthFeed.TrendIndicator"},{"name":"notes","type":"string","internalType":"string"}]}],"stateMutability":"view"},{"type":"function","name":"getLatestReport","inputs":[{"name":"loanId","type":"bytes32","internalType":"bytes32"}],"outputs":[{"name":"overallStatus","type":"uint8","internalType":"enum LoanHealthFeed.CovenantStatus"},{"name":"overallTrend","type":"uint8","internalType":"enum LoanHealthFeed.TrendIndicator"},{"name":"overallConfidenceScore","type":"uint256","internalType":"uint256"},{"name":"reportTimestamp","type":"uint256","internalType":"uint256"},{"name":"reportIndex","type":"uint256","internalType":"uint256"},{"name":"riskNarrative","type":"string","internalType":"string"},{"name":"isActive","type":"bool","internalType":"bool"}],"stateMutability":"view"},{"type":"function","name":"getLoanSummary","inputs":[{"name":"loanId","type":"bytes32","internalType":"bytes32"}],"outputs":[{"name":"","type":"tuple","internalType":"struct LoanHealthFeed.LoanHealthSummary","components":[{"name":"loanId","type":"bytes32","internalType":"bytes32"},{"name":"overallStatus","type":"uint8","internalType":"enum LoanHealthFeed.CovenantStatus"},{"name":"overallTrend","type":"uint8","internalType":"enum LoanHealthFeed.TrendIndicator"},{"name":"overallConfidenceScore","type":"uint256","internalType":"uint256"},{"name":"lastUpdated","type":"uint256","internalType":"uint256"},{"name":"totalReports","type":"uint256","internalType":"uint256"},{"name":"totalBreaches","type":"uint256","internalType":"uint256"},{"name":"totalWarnings","type":"uint256","internalType":"uint256"}]}],"stateMutability":"view"},{"type":"function","name":"getMonitoredLoanCount","inputs":[],"outputs":[{"name":"","type":"uint256","internalType":"uint256"}],"stateMutability":"view"},{"type":"function","name":"getRecentStatusHistory","inputs":[{"name":"loanId","type":"bytes32","internalType":"bytes32"},{"name":"n","type":"uint256","internalType":"uint256"}],"outputs":[{"name":"statuses","type":"uint8[]","internalType":"enum LoanHealthFeed.CovenantStatus[]"},{"name":"timestamps","type":"uint256[]","internalType":"uint256[]"}],"stateMutability":"view"},{"type":"function","name":"getRoleAdmin","inputs":[{"name":"role","type":"bytes32","internalType":"bytes32"}],"outputs":[{"name":"","type":"bytes32","internalType":"bytes32"}],"stateMutability":"view"},{"type":"function","name":"grantRole","inputs":[{"name":"role","type":"bytes32","internalType":"bytes32"},{"name":"account","type":"address","internalType":"address"}],"outputs":[],"stateMutability":"nonpayable"},{"type":"function","name":"hasRole","inputs":[{"name":"role","type":"bytes32","internalType":"bytes32"},{"name":"account","type":"address","internalType":"address"}],"outputs":[{"name":"","type":"bool","internalType":"bool"}],"stateMutability":"view"},{"type":"function","name":"isInBreach","inputs":[{"name":"","type":"bytes32","internalType":"bytes32"}],"outputs":[{"name":"","type":"bool","internalType":"bool"}],"stateMutability":"view"},{"type":"function","name":"isLoanInBreach","inputs":[{"name":"loanId","type":"bytes32","internalType":"bytes32"}],"outputs":[{"name":"","type":"bool","internalType":"bool"}],"stateMutability":"view"},{"type":"function","name":"isLoanMonitored","inputs":[{"name":"loanId","type":"bytes32","internalType":"bytes32"}],"outputs":[{"name":"","type":"bool","internalType":"bool"}],"stateMutability":"view"},{"type":"function","name":"monitoredLoans","inputs":[{"name":"","type":"uint256","internalType":"uint256"}],"outputs":[{"name":"","type":"bytes32","internalType":"bytes32"}],"stateMutability":"view"},{"type":"function","name":"publishHealthReport","inputs":[{"name":"input","type":"tuple","internalType":"struct LoanHealthFeed.PublishReportInput","components":[{"name":"loanId","type":"bytes32","internalType":"bytes32"},{"name":"overallStatus","type":"uint8","internalType":"enum LoanHealthFeed.CovenantStatus"},{"name":"overallTrend","type":"uint8","internalType":"enum LoanHealthFeed.TrendIndicator"},{"name":"overallConfidenceScore","type":"uint256","internalType":"uint256"},{"name":"riskNarrative","type":"string","internalType":"string"},{"name":"covenantNames","type":"string[]","internalType":"string[]"},{"name":"statuses","type":"uint8[]","internalType":"enum LoanHealthFeed.CovenantStatus[]"},{"name":"calculatedValues","type":"uint256[]","internalType":"uint256[]"},{"name":"thresholds","type":"uint256[]","internalType":"uint256[]"},{"name":"confidenceScores","type":"uint256[]","internalType":"uint256[]"},{"name":"trends","type":"uint8[]","internalType":"enum LoanHealthFeed.TrendIndicator[]"},{"name":"notes","type":"string[]","internalType":"string[]"}]}],"outputs":[],"stateMutability":"nonpayable"},{"type":"function","name":"renounceRole","inputs":[{"name":"role","type":"bytes32","internalType":"bytes32"},{"name":"callerConfirmation","type":"address","internalType":"address"}],"outputs":[],"stateMutability":"nonpayable"},{"type":"function","name":"reportCount","inputs":[{"name":"","type":"bytes32","internalType":"bytes32"}],"outputs":[{"name":"","type":"uint256","internalType":"uint256"}],"stateMutability":"view"},{"type":"function","name":"revokeRole","inputs":[{"name":"role","type":"bytes32","internalType":"bytes32"},{"name":"account","type":"address","internalType":"address"}],"outputs":[],"stateMutability":"nonpayable"},{"type":"function","name":"supportsInterface","inputs":[{"name":"interfaceId","type":"bytes4","internalType":"bytes4"}],"outputs":[{"name":"","type":"bool","internalType":"bool"}],"stateMutability":"view"},{"type":"function","name":"warningCount","inputs":[{"name":"","type":"bytes32","internalType":"bytes32"}],"outputs":[{"name":"","type":"uint256","internalType":"uint256"}],"stateMutability":"view"},{"type":"event","name":"BreachResolved","inputs":[{"name":"loanId","type":"bytes32","indexed":true,"internalType":"bytes32"},{"name":"timestamp","type":"uint256","indexed":false,"internalType":"uint256"}],"anonymous":false},{"type":"event","name":"CovenantBreach","inputs":[{"name":"loanId","type":"bytes32","indexed":true,"internalType":"bytes32"},{"name":"covenantName","type":"string","indexed":false,"internalType":"string"},{"name":"calculatedValue","type":"uint256","indexed":false,"internalType":"uint256"},{"name":"threshold","type":"uint256","indexed":false,"internalType":"uint256"},{"name":"confidenceScore","type":"uint256","indexed":false,"internalType":"uint256"},{"name":"timestamp","type":"uint256","indexed":false,"internalType":"uint256"}],"anonymous":false},{"type":"event","name":"CovenantWarning","inputs":[{"name":"loanId","type":"bytes32","indexed":true,"internalType":"bytes32"},{"name":"covenantName","type":"string","indexed":false,"internalType":"string"},{"name":"calculatedValue","type":"uint256","indexed":false,"internalType":"uint256"},{"name":"threshold","type":"uint256","indexed":false,"internalType":"uint256"},{"name":"timestamp","type":"uint256","indexed":false,"internalType":"uint256"}],"anonymous":false},{"type":"event","name":"LoanHealthReportPublished","inputs":[{"name":"loanId","type":"bytes32","indexed":true,"internalType":"bytes32"},{"name":"reportIndex","type":"uint256","indexed":false,"internalType":"uint256"},{"name":"overallStatus","type":"uint8","indexed":false,"internalType":"enum LoanHealthFeed.CovenantStatus"},{"name":"overallTrend","type":"uint8","indexed":false,"internalType":"enum LoanHealthFeed.TrendIndicator"},{"name":"overallConfidenceScore","type":"uint256","indexed":false,"internalType":"uint256"},{"name":"timestamp","type":"uint256","indexed":false,"internalType":"uint256"}],"anonymous":false},{"type":"event","name":"LoanMonitoringActivated","inputs":[{"name":"loanId","type":"bytes32","indexed":true,"internalType":"bytes32"},{"name":"timestamp","type":"uint256","indexed":false,"internalType":"uint256"}],"anonymous":false},{"type":"event","name":"LoanMonitoringDeactivated","inputs":[{"name":"loanId","type":"bytes32","indexed":true,"internalType":"bytes32"},{"name":"timestamp","type":"uint256","indexed":false,"internalType":"uint256"}],"anonymous":false},{"type":"event","name":"RoleAdminChanged","inputs":[{"name":"role","type":"bytes32","indexed":true,"internalType":"bytes32"},{"name":"previousAdminRole","type":"bytes32","indexed":true,"internalType":"bytes32"},{"name":"newAdminRole","type":"bytes32","indexed":true,"internalType":"bytes32"}],"anonymous":false},{"type":"event","name":"RoleGranted","inputs":[{"name":"role","type":"bytes32","indexed":true,"internalType":"bytes32"},{"name":"account","type":"address","indexed":true,"internalType":"address"},{"name":"sender","type":"address","indexed":true,"internalType":"address"}],"anonymous":false},{"type":"event","name":"RoleRevoked","inputs":[{"name":"role","type":"bytes32","indexed":true,"internalType":"bytes32"},{"name":"account","type":"address","indexed":true,"internalType":"address"},{"name":"sender","type":"address","indexed":true,"internalType":"address"}],"anonymous":false},{"type":"error","name":"AccessControlBadConfirmation","inputs":[]},{"type":"error","name":"AccessControlUnauthorizedAccount","inputs":[{"name":"account","type":"address","internalType":"address"},{"name":"neededRole","type":"bytes32","internalType":"bytes32"}]},{"type":"error","name":"ArrayLengthMismatch","inputs":[{"name":"loanId","type":"bytes32","internalType":"bytes32"}]},{"type":"error","name":"AtleastOneCovenantRequired","inputs":[{"name":"loanId","type":"bytes32","internalType":"bytes32"}]},{"type":"error","name":"InvalidConfidenceScore","inputs":[{"name":"loanId","type":"bytes32","internalType":"bytes32"},{"name":"score","type":"uint256","internalType":"uint256"}]},{"type":"error","name":"LoanNotMonitored","inputs":[{"name":"loanId","type":"bytes32","internalType":"bytes32"}]}],"bytecode":{"object":"0x60803461007257601f61251438819003918201601f19168301916001600160401b038311848410176100765780849260209460405283398101031261007257516001600160a01b0381168103610072576100629061005c3361008a565b50610100565b5060405161232090816101948239f35b5f80fd5b634e487b7160e01b5f52604160045260245ffd5b6001600160a01b0381165f9081525f5160206124f45f395f51905f52602052604090205460ff166100fb576001600160a01b03165f8181525f5160206124f45f395f51905f5260205260408120805460ff191660011790553391905f5160206124b45f395f51905f528180a4600190565b505f90565b6001600160a01b0381165f9081525f5160206124d45f395f51905f52602052604090205460ff166100fb576001600160a01b03165f8181525f5160206124d45f395f51905f5260205260408120805460ff191660011790553391907f27474d19bed8c237b6f0ac3a8e704c5f2dc7c7f0e86a42e967d95cfc461c1d22905f5160206124b45f395f51905f529080a460019056fe6080806040526004361015610012575f80fd5b5f3560e01c90816301ffc9a7146119b157508063203830b114611982578063233eaca81461194a578063248a9ca31461191857806329b5e21b146118625780632f2ff15d1461183357806336568abe146117fd5780633dd59137146117ce57806347bac1fc146117ce5780634def31881461171257806351a34f79146116a457806357eebf311461156357806362986851146114c957806363604d89146114ac578063835369c31461148257806384d46d701461075357806391d148541461071857806393de0af9146106de578063a217fddf146106c4578063bd8f63ea14610500578063cf1a2058146104d6578063d4e24d38146103c5578063d547741f1461038f578063d750b20214610365578063e21fcc9c146101a65763fbf469751461013a575f80fd5b346101a25760203660031901126101a257600435610156612111565b61015f816122c0565b805f526002602052600860405f200160ff1981541690557f8b6656e2b6ad941d2ad4bcff13a5868a31e9700c209e828b40849e7c0393a0df6020604051428152a2005b5f80fd5b346101a2576101b436611a99565b6101bd826122c0565b815f52600460205260405f2054908181115f1461034c575090815b6101e1836120e6565b916101ef6040519384611ae6565b8383526101fb846120e6565b602084019190601f1901368337610211856120e6565b9461021f6040519687611ae6565b80865261022b816120e6565b602087019490601f19013686375f5b8281106102ce5750505050604051938493604085019060408652518091526060850192905f5b8181106102a5575050506020908483038286015251918281520191905f5b81811061028c575050500390f35b825184528594506020938401939092019160010161027e565b91949550919260208060019287516102bc81611a57565b81520195019101918695949392610260565b5f979495969750828203908282116103385780820180921161033857600191855f52600360205260405f20905f526020528160405f2060ff600382015416610316848d6120fd565b61031f82611a57565b52015461032c82886120fd565b5201969594939661023a565b634e487b7160e01b5f52601160045260245ffd5b6014811115610360575060145b91906101d8565b610359565b346101a25760203660031901126101a2576004355f526004602052602060405f2054604051908152f35b346101a2576103c36103a036611a31565b906103be6103b9825f525f602052600160405f20015490565b612180565b612240565b005b346101a2576103d336611a99565b906103dd816122c0565b805f52600460205260405f205482101561047f575f52600360205260405f20905f5260205260405f2060ff60038201541661047b600760ff60058501541693600681015461044160018301549261043a6040518096819301611b3f565b0384611ae6565b60405195856104508897611a57565b865261045b81611a57565b60208601526040850152606084015260a0608084015260a0830190611a75565b0390f35b60405162461bcd60e51b815260206004820152602960248201527f4c6f616e4865616c7468466565643a205265706f727420696e646578206f7574604482015268206f662072616e676560b81b6064820152608490fd5b346101a25760203660031901126101a2576004355f526005602052602060405f2054604051908152f35b346101a25760203660031901126101a25760043561051d816122c0565b5f526002602052600460405f2001805490610537826120e6565b916105456040519384611ae6565b8083526020830180925f5260205f205f915b83831061062857848660405191829160208301906020845251809152604083019060408160051b85010192915f905b82821061059557505050500390f35b919360019193955060206106188192603f198a820301865288519060c06105c5835160e0845260e0840190611a75565b92858101516105d381611a57565b8684015260408101516040840152606081015160608401526080810151608084015260a081015161060381611a57565b60a084015201519060c0818403910152611a75565b9601920192018594939192610586565b6007602060019260405161063b81611acb565b6040516106538161064c818a611b3f565b0382611ae6565b815260ff858701541661066581611a57565b8382015260028601546040820152600386015460608201526004860154608082015260ff60058701541661069881611a57565b60a08201526040516106b18161064c8160068b01611b3f565b60c0820152815201920192019190610557565b346101a2575f3660031901126101a25760206040515f8152f35b346101a2575f3660031901126101a25760206040517f27474d19bed8c237b6f0ac3a8e704c5f2dc7c7f0e86a42e967d95cfc461c1d228152f35b346101a25761072636611a31565b905f525f60205260405f209060018060a01b03165f52602052602060ff60405f2054166040519015158152f35b346101a25760203660031901126101a2576001600160401b03600435116101a257610180600435360360031901126101a25761078d612111565b6107a160a460043501600435600401611d3f565b905015611469576107bc60a460043501600435600401611d3f565b90506107d260c460043501600435600401611d3f565b91905014801590611434575b80156113fe575b80156113c8575b8015611392575b801561135c575b611343576064806004350135116113205760048035808201355f81815260209384526040808220546003808752828420828552909652912091825542600183015560028201819055909290916024013510156101a2576108636024600435013560038401611d74565b60036044600435013510156101a2576108856044600435013560058401611d74565b6064600435013560068301556108a5608460043501600435600401611d8c565b906001600160401b038211610deb576108ce826108c56007870154611b07565b60078701611dd9565b5f90601f83116001146112b3576108fc92915f91836112a8575b50508160011b915f199060031b1c19161790565b60078301555b60088201805460ff191660011790555f5b61092760a460043501600435600401611d3f565b9050811015610e835761094e8161094860a460043501600435600401611d3f565b90611e28565b9061096d8361096760c460043501600435600401611d3f565b90611e43565b359060038210156101a2576109908461096760e460043501600435600401611d3f565b35916109ab8561096761010460043501600435600401611d3f565b356109c58661096761012460043501600435600401611d3f565b356109df8761096761014460043501600435600401611d3f565b359160038310156101a257610a5695610a2294610a0b8a61094861016460043501600435600401611d3f565b9690976040519a610a1b8c611acb565b3691611bd9565b8952610a2d81611a57565b6020890152604088015260608701526080860152610a4a81611a57565b60a08501523691611bd9565b60c08201526004840154600160401b811015610deb57806001610a829201600487015560048601611bc0565b919091610e705780518051906001600160401b038211610deb57610ab082610aaa8654611b07565b86611dd9565b602090601f8311600114610e0a579180610ae29260c095945f92610dff5750508160011b915f199060031b1c19161790565b83555b610aff6020820151610af681611a57565b60018501611d74565b604081015160028401556060810151600384015560808101516004840155610b3760a0820151610b2e81611a57565b60058501611d74565b01518051906001600160401b038211610deb57610b6482610b5b6006860154611b07565b60068601611dd9565b602090601f8311600114610d80579180610b95926006945f92610d755750508160011b915f199060031b1c19161790565b9101555b610bb18161096760c460043501600435600401611d3f565b3560038110156101a257600290610bc781611a57565b03610c9857807fa49c7c39ef0643ef5e3e4fdab44315da56fbb74ed8fced74a722d6884704e5d0610c0860019361094860a460043501600435600401611d3f565b610c238461096760e460049695963501600435600401611d3f565b3592610c3e8561096761010460043501600435600401611d3f565b35610c6f610c5b8761096761012460043501600435600401611d3f565b35926040519460a0865260a0860191611e53565b946020840152604083015260608201524260808201528060043560040135930390a25b01610913565b610cb08161096760c460043501600435600401611d3f565b359060038210156101a25760018092610cc881611a57565b03610c92577faf50394f2a8744ad52dfb5a388efda1ba27ef8b3c22968a66de518b1da18efa6610d068261094860a460043501600435600401611d3f565b610d218461096760e460049695963501600435600401611d3f565b3592610d53610d3f8661096761010460043501600435600401611d3f565b359160405193608085526080850191611e53565b93602083015260408201524260608201528060043560040135930390a2610c92565b0151905088806108e8565b90600684015f52805f20915f5b601f1985168110610dd35750918391600193600695601f19811610610dbb575b505050811b01910155610b99565b01515f1960f88460031b161c19169055878080610dad565b91926020600181928685015181550194019201610d8d565b634e487b7160e01b5f52604160045260245ffd5b0151905089806108e8565b90601f19831691855f52815f20925f5b818110610e58575091600193918560c097969410610e40575b505050811b018355610ae5565b01515f1960f88460031b161c19169055888080610e33565b92936020600181928786015181550195019301610e1a565b634e487b7160e01b5f525f60045260245ffd5b5090600435600401355f52600260205260405f20818103611220575b5050600435600401355f52600460205260405f20610ebd81546120d8565b90555f610ecf60246004350135611a57565b600435602401356002149081156111de57600435600401355f52600560205260405f20610efc81546120d8565b90555b6101a257600435600401355f52600960205260ff60405f20541690610f2960246004350135611a57565b80806111d6575b156110ac575050600435600401355f52600960205260405f20600160ff19825416179055600854600160401b811015610deb57610f78816001610f9793016008556008611a1c565b600492919235600401359083549060031b91821b915f19901b19161790565b90555b600435600401355f52600160205260ff60405f20541615611032575b604051908152610fcb60246004350135611a57565b602460043501356020820152610fe660446004350135611a57565b6044600435013560408201526064600435013560608201524260808201527f162277fae25a18f61c580823c5d0a4de9d6b7dfd3f9df5b61f543655c3b7ff5f60a06004356004013592a2005b600435600401355f52600160205260405f20600160ff19825416179055600654600160401b811015610deb57610f7881600161107393016006556006611a1c565b90556040514281527f861ef34e34cf945c5e1118b1f77579f16707785a47d4d547c4596a34dbfa8d7060206004356004013592a2610fb6565b6110bb60246004350135611a57565b1590816111ce575b5015610f9a57600435600401355f52600960205260405f2060ff1981541690556008545f5b818110611129575b50506040514281527fcf8bf87096ae3e08f7fa43e7cb33c87aba249d49ec23d20b3b5c5748acde4d5560206004356004013592a2610f9a565b61113281611a04565b6004356004013591549060031b1c1461114d576001016110e8565b905f1981019081116103385761117561116861118b92611a04565b90549060031b1c92611a04565b819391549060031b91821b915f19901b19161790565b905560085480156111ba575f19016111a281611a04565b8154905f199060031b1b1916905560085581806110f0565b634e487b7160e01b5f52603160045260245ffd5b9050826110c3565b508115610f30565b505f6111ef60246004350135611a57565b60016024600435013503610eff57600435600401355f52600760205260405f2061121981546120d8565b9055610eff565b60088060ff928454815560018501546001820155600285015460028201556112518460038701541660038301611d74565b6112616004860160048301611fa1565b6112748460058701541660058301611d74565b6006850154600682015561128e6007860160078301611ec2565b0192015416151560ff801983541691161790558180610e9f565b0135905085806108e8565b600785939293015f5260205f20905f935b601f1984168510611308576001945083601f198116106112ef575b505050811b016007830155610902565b01355f19600384901b60f8161c191690558480806112df565b818101358355602094850194600190930192016112c4565b633347396160e21b5f52600435600401356004526064600435013560245260445ffd5b634c35e9b360e11b5f526004356004013560045260245ffd5b5061137160a460043501600435600401611d3f565b905061138861016460043501600435600401611d3f565b91905014156107fa565b506113a760a460043501600435600401611d3f565b90506113be61014460043501600435600401611d3f565b91905014156107f3565b506113dd60a460043501600435600401611d3f565b90506113f461012460043501600435600401611d3f565b91905014156107ec565b5061141360a460043501600435600401611d3f565b905061142a61010460043501600435600401611d3f565b91905014156107e5565b5061144960a460043501600435600401611d3f565b905061145f60e460043501600435600401611d3f565b91905014156107de565b630b1a688d60e11b5f526004356004013560045260245ffd5b346101a25760203660031901126101a2576004355f526007602052602060405f2054604051908152f35b346101a2575f3660031901126101a2576020600654604051908152f35b346101a25760403660031901126101a2576004356024356001600160401b0381116101a257366023820112156101a25780600401356001600160401b0381116101a25736602482840101116101a2578260246115319361152a60a0966122c0565b0190611c1e565b926040929192519461154281611a57565b855260208501526040840152606083015261155c81611a57565b6080820152f35b346101a25760203660031901126101a2576101006004355f60e060405161158981611aaf565b8281528260208201528260408201528260608201528260808201528260a08201528260c082015201526115bb816122c0565b805f52600260205260405f2060ff6003820154169060ff6005820154169060016006820154910154845f52600460205260405f205491855f52600560205260405f205493865f52600760205260405f2054956040519761161a89611aaf565b8852602088019061162a81611a57565b8152604088019161163a81611a57565b8252606088019283526080880193845260a0880194855260c0880195865260e08801968752604051975188525161167081611a57565b60208801525161167f81611a57565b60408701525160608601525160808501525160a08401525160c08301525160e0820152f35b346101a25760203660031901126101a2576004356006548110156101a2576006548110156116fe5760065f527ff652222313e28459528d920b65115c16c04f3efc82aaedc97be59f3f377c0d3f0154604051908152602090f35b634e487b7160e01b5f52603260045260245ffd5b346101a25760203660031901126101a25760043561172f816122c0565b5f52600260205260405f2060ff60038201541660ff600583015416916117c260076006830154600184015460028501549161178360ff6008880154169661177c6040518097819301611b3f565b0385611ae6565b60405197876117928a99611a57565b885261179d81611a57565b602088015260408701526060860152608085015260e060a085015260e0840190611a75565b90151560c08301520390f35b346101a25760203660031901126101a2576004355f526009602052602060ff60405f2054166040519015158152f35b346101a25761180b36611a31565b336001600160a01b03821603611824576103c391612240565b63334bd91960e11b5f5260045ffd5b346101a2576103c361184436611a31565b9061185d6103b9825f525f602052600160405f20015490565b6121b8565b346101a2575f3660031901126101a2576040518060206008549283815201809260085f527ff3f7a9fe364faab93b216da50a3214154f22a0a2b415b23a84c8169e8b636ee3905f5b81811061190257505050816118c0910382611ae6565b604051918291602083019060208452518091526040830191905f5b8181106118e9575050500390f35b82518452859450602093840193909201916001016118db565b82548452602090930192600192830192016118aa565b346101a25760203660031901126101a25760206119426004355f525f602052600160405f20015490565b604051908152f35b346101a25760203660031901126101a2576004356008548110156101a257611973602091611a04565b90549060031b1c604051908152f35b346101a25760203660031901126101a2576004355f526001602052602060ff60405f2054166040519015158152f35b346101a25760203660031901126101a2576004359063ffffffff60e01b82168092036101a257602091637965db0b60e01b81149081156119f3575b5015158152f35b6301ffc9a760e01b149050836119ec565b6008548110156116fe5760085f5260205f2001905f90565b80548210156116fe575f5260205f2001905f90565b60409060031901126101a257600435906024356001600160a01b03811681036101a25790565b60031115611a6157565b634e487b7160e01b5f52602160045260245ffd5b805180835260209291819084018484015e5f828201840152601f01601f1916010190565b60409060031901126101a2576004359060243590565b61010081019081106001600160401b03821117610deb57604052565b60e081019081106001600160401b03821117610deb57604052565b90601f801991011681019081106001600160401b03821117610deb57604052565b90600182811c92168015611b35575b6020831014611b2157565b634e487b7160e01b5f52602260045260245ffd5b91607f1691611b16565b5f9291815491611b4e83611b07565b8083529260018116908115611ba35750600114611b6a57505050565b5f9081526020812093945091925b838310611b89575060209250010190565b600181602092949394548385870101520191019190611b78565b915050602093945060ff929192191683830152151560051b010190565b80548210156116fe575f52600760205f20910201905f90565b9291926001600160401b038211610deb5760405191611c02601f8201601f191660200184611ae6565b8294818452818301116101a2578281602093845f960137010152565b9190915f526002602052600460405f2001905f928254935b848110611c9e5760405162461bcd60e51b815260206004820152603360248201527f4c6f616e4865616c7468466565643a20436f76656e616e74206e6f7420666f756044820152721b99081a5b881b185d195cdd081c995c1bdc9d606a1b6064820152608490fd5b61064c611cbb611cae8387611bc0565b5060405192838092611b3f565b60208151910120611ccd368585611bd9565b6020815191012014611ce157600101611c36565b9350505060ff6001611cf38484611bc0565b500154166002611d038484611bc0565b5001549360ff6005611d336003611d1a8888611bc0565b500154966004611d2a8289611bc0565b50015496611bc0565b50015416919493929190565b903590601e19813603018212156101a257018035906001600160401b0382116101a257602001918160051b360383136101a257565b90611d7e81611a57565b60ff80198354169116179055565b903590601e19813603018212156101a257018035906001600160401b0382116101a2576020019181360383136101a257565b5f5b828110611dcc57505050565b5f82820155600101611dc0565b91601f8211611de757505050565b808211611df357505050565b611e1e925f5260205f20916020601f830160051c9210611e20575b601f82910160051c039101611dbe565b565b5f9150611e0e565b908210156116fe57611e3f9160051b810190611d8c565b9091565b91908110156116fe5760051b0190565b908060209392818452848401375f828201840152601f01601f1916010190565b611e7d8154611b07565b9081611e87575050565b81601f5f9311600114611e98575055565b81835260208320611eb591601f0160051c84190190600101611dbe565b8082528160208120915555565b919091828114611f9c57611ed68354611b07565b6001600160401b038111610deb57611ef881611ef28454611b07565b84611dd9565b5f93601f8211600114611f3657611f2792939482915f92611f2b5750508160011b915f199060031b1c19161790565b9055565b015490505f806108e8565b601f198216905f5260205f2094835f5260205f20915f5b818110611f8457509583600195969710611f6c575b505050811b019055565b01545f1960f88460031b161c191690555f8080611f62565b9192600180602092868b015481550194019201611f4d565b509050565b8181146120d457815491600160401b8311610deb57815483835580841061205e575b505f5260205f20905f5260205f205f915b838310611fe15750505050565b600780826001938503611ffb575b01920192019190611fd4565b6120058186611ec2565b61201760ff8583015416858701611d74565b60028101546002860155600381015460038601556004810154600486015561204960ff60058301541660058701611d74565b6120596006820160068701611ec2565b611fef565b80600702906007820403610338578360070260078104850361033857835f528060205f20019103905f5b828110612096575050611fc3565b806120ce600660079385016120aa81611e73565b5f60018201555f60028201555f60038201555f60048201555f600582015501611e73565b01612088565b5050565b5f1981146103385760010190565b6001600160401b038111610deb5760051b60200190565b80518210156116fe5760209160051b010190565b335f9081527f88b5e9d578fd2c8ef697d9eaf521eed09df8abdd2177a8b24330be81f4cea85e602052604090205460ff161561214957565b63e2517d3f60e01b5f52336004527f27474d19bed8c237b6f0ac3a8e704c5f2dc7c7f0e86a42e967d95cfc461c1d2260245260445ffd5b5f8181526020818152604080832033845290915290205460ff16156121a25750565b63e2517d3f60e01b5f523360045260245260445ffd5b5f818152602081815260408083206001600160a01b038616845290915290205460ff1661223a575f818152602081815260408083206001600160a01b0395909516808452949091528120805460ff19166001179055339291907f2f8788117e7eff1d82e926ec794901d17c78024a50270940304540a733656f0d9080a4600190565b50505f90565b5f818152602081815260408083206001600160a01b038616845290915290205460ff161561223a575f818152602081815260408083206001600160a01b0395909516808452949091528120805460ff19169055339291907ff6391f5c32d9c69d2a47ea670b442974b53935d1edc7fd64eb21e047a839171b9080a4600190565b805f52600160205260ff60405f205416156122d85750565b6304472d1360e21b5f5260045260245ffdfea26469706673582212200bf1e0a30f9734f20bb175d66dec46798327f64625a58454996d2620f7e2e50864736f6c634300082100332f8788117e7eff1d82e926ec794901d17c78024a50270940304540a733656f0d88b5e9d578fd2c8ef697d9eaf521eed09df8abdd2177a8b24330be81f4cea85ead3228b676f7d3cd4284a5443f17f1962b36e491b30a40b2405849e597ba5fb5","linkReferences":{}},"methodIdentifiers":{"DEFAULT_ADMIN_ROLE()":"a217fddf","WORKFLOW_ROLE()":"93de0af9","activeBreaches(uint256)":"233eaca8","breachCount(bytes32)":"cf1a2058","deactivateLoan(bytes32)":"fbf46975","getActiveBreaches()":"29b5e21b","getCovenantStatus(bytes32,string)":"62986851","getHistoricalReport(bytes32,uint256)":"d4e24d38","getLatestCovenantReports(bytes32)":"bd8f63ea","getLatestReport(bytes32)":"4def3188","getLoanSummary(bytes32)":"57eebf31","getMonitoredLoanCount()":"63604d89","getRecentStatusHistory(bytes32,uint256)":"e21fcc9c","getRoleAdmin(bytes32)":"248a9ca3","grantRole(bytes32,address)":"2f2ff15d","hasRole(bytes32,address)":"91d14854","isInBreach(bytes32)":"47bac1fc","isLoanInBreach(bytes32)":"3dd59137","isLoanMonitored(bytes32)":"203830b1","monitoredLoans(uint256)":"51a34f79","publishHealthReport((bytes32,uint8,uint8,uint256,string,string[],uint8[],uint256[],uint256[],uint256[],uint8[],string[]))":"84d46d70","renounceRole(bytes32,address)":"36568abe","reportCount(bytes32)":"d750b202","revokeRole(bytes32,address)":"d547741f","supportsInterface(bytes4)":"01ffc9a7","warningCount(bytes32)":"835369c3"},"id":22}