{"abi":[{"type":"constructor","inputs":[{"name":"_expectedAuthor","type":"address","internalType":"address"},{"name":"_expectedWorkflowName","type":"bytes10","internalType":"bytes10"}],"stateMutability":"nonpayable"},{"type":"function","name":"EXPECTED_AUTHOR","inputs":[],"outputs":[{"name":"","type":"address","internalType":"address"}],"stateMutability":"view"},{"type":"function","name":"EXPECTED_WORKFLOW_NAME","inputs":[],"outputs":[{"name":"","type":"bytes10","internalType":"bytes10"}],"stateMutability":"view"},{"type":"function","name":"deactivateCovenant","inputs":[{"name":"loanId","type":"bytes32","internalType":"bytes32"},{"name":"covenantName","type":"string","internalType":"string"}],"outputs":[],"stateMutability":"nonpayable"},{"type":"function","name":"getCovenant","inputs":[{"name":"loanId","type":"bytes32","internalType":"bytes32"},{"name":"covenantName","type":"string","internalType":"string"}],"outputs":[{"name":"name","type":"string","internalType":"string"},{"name":"metricDefinition","type":"string","internalType":"string"},{"name":"threshold","type":"uint256","internalType":"uint256"},{"name":"thresholdType","type":"string","internalType":"string"},{"name":"ebitdaAdjustments","type":"string","internalType":"string"},{"name":"isActive","type":"bool","internalType":"bool"}],"stateMutability":"view"},{"type":"function","name":"getCovenantNames","inputs":[{"name":"loanId","type":"bytes32","internalType":"bytes32"}],"outputs":[{"name":"","type":"string[]","internalType":"string[]"}],"stateMutability":"view"},{"type":"function","name":"getLoanSchema","inputs":[{"name":"loanId","type":"bytes32","internalType":"bytes32"}],"outputs":[{"name":"tokenAddress","type":"address","internalType":"address"},{"name":"principalAmount","type":"uint256","internalType":"uint256"},{"name":"onboardingTimestamp","type":"uint256","internalType":"uint256"},{"name":"reportingFrequency","type":"uint256","internalType":"uint256"},{"name":"covenantNames","type":"string[]","internalType":"string[]"}],"stateMutability":"view"},{"type":"function","name":"getRegisteredLoanCount","inputs":[],"outputs":[{"name":"","type":"uint256","internalType":"uint256"}],"stateMutability":"view"},{"type":"function","name":"isLoanRegistered","inputs":[{"name":"loanId","type":"bytes32","internalType":"bytes32"}],"outputs":[{"name":"","type":"bool","internalType":"bool"}],"stateMutability":"view"},{"type":"function","name":"onReport","inputs":[{"name":"metadata","type":"bytes","internalType":"bytes"},{"name":"report","type":"bytes","internalType":"bytes"}],"outputs":[],"stateMutability":"nonpayable"},{"type":"function","name":"registeredLoans","inputs":[{"name":"","type":"uint256","internalType":"uint256"}],"outputs":[{"name":"","type":"bytes32","internalType":"bytes32"}],"stateMutability":"view"},{"type":"function","name":"supportsInterface","inputs":[{"name":"interfaceId","type":"bytes4","internalType":"bytes4"}],"outputs":[{"name":"","type":"bool","internalType":"bool"}],"stateMutability":"pure"},{"type":"function","name":"updateCovenantThreshold","inputs":[{"name":"loanId","type":"bytes32","internalType":"bytes32"},{"name":"covenantName","type":"string","internalType":"string"},{"name":"newThreshold","type":"uint256","internalType":"uint256"}],"outputs":[],"stateMutability":"nonpayable"},{"type":"event","name":"CovenantAdded","inputs":[{"name":"loanId","type":"bytes32","indexed":true,"internalType":"bytes32"},{"name":"covenantName","type":"string","indexed":false,"internalType":"string"},{"name":"threshold","type":"uint256","indexed":false,"internalType":"uint256"},{"name":"thresholdType","type":"string","indexed":false,"internalType":"string"}],"anonymous":false},{"type":"event","name":"CovenantDeactivated","inputs":[{"name":"loanId","type":"bytes32","indexed":true,"internalType":"bytes32"},{"name":"covenantName","type":"string","indexed":false,"internalType":"string"}],"anonymous":false},{"type":"event","name":"CovenantUpdated","inputs":[{"name":"loanId","type":"bytes32","indexed":true,"internalType":"bytes32"},{"name":"covenantName","type":"string","indexed":false,"internalType":"string"},{"name":"newThreshold","type":"uint256","indexed":false,"internalType":"uint256"}],"anonymous":false},{"type":"event","name":"LoanRegistered","inputs":[{"name":"loanId","type":"bytes32","indexed":true,"internalType":"bytes32"},{"name":"tokenAddress","type":"address","indexed":true,"internalType":"address"},{"name":"principalAmount","type":"uint256","indexed":false,"internalType":"uint256"},{"name":"covenantCount","type":"uint256","indexed":false,"internalType":"uint256"},{"name":"timestamp","type":"uint256","indexed":false,"internalType":"uint256"}],"anonymous":false},{"type":"error","name":"ConvenantNotFound","inputs":[{"name":"loanId","type":"bytes32","internalType":"bytes32"},{"name":"covenantName","type":"string","internalType":"string"}]},{"type":"error","name":"InvalidAuthor","inputs":[{"name":"received","type":"address","internalType":"address"},{"name":"expected","type":"address","internalType":"address"}]},{"type":"error","name":"InvalidCovenantArray","inputs":[]},{"type":"error","name":"InvalidTokenAddress","inputs":[]},{"type":"error","name":"InvalidWorkflowName","inputs":[{"name":"received","type":"bytes10","internalType":"bytes10"},{"name":"expected","type":"bytes10","internalType":"bytes10"}]},{"type":"error","name":"LoanAlreadyRegistered","inputs":[{"name":"loanId","type":"bytes32","internalType":"bytes32"}]},{"type":"error","name":"LoanNotRegistered","inputs":[{"name":"loanId","type":"bytes32","internalType":"bytes32"}]}],"bytecode":{"object":"0x60c034608757601f610fca38819003918201601f19168301916001600160401b03831184841017608b5780849260409485528339810103126087578051906001600160a01b038216820360875760200151906001600160b01b03198216820360875760805260a052604051610f2a90816100a08239608051816108d8015260a0518160b20152f35b5f80fd5b634e487b7160e01b5f52604160045260245ffdfe60806040526004361015610011575f80fd5b5f3560e01c80630137f4931461099b57806301ffc9a71461095457806351d274de146109075780635780bd93146108c3578063805f21321461042357806389f75e8a146103eb5780638aa1fef7146103425780638bb7e473146103255780638ef5c48d146101ee578063bc09792f146101bd578063c3d8b340146100e65763d71d79fe1461009d575f80fd5b346100e2575f3660031901126100e2576040517f00000000000000000000000000000000000000000000000000000000000000006001600160b01b0319168152602090f35b5f80fd5b346100e25760603660031901126100e2576004356024356001600160401b0381116100e257610119903690600401610a94565b91906044359261012883610cdf565b825f525f602052610140600660405f20018284610c8c565b9361014b8554610b5f565b1561019a578060027f2c0c38f77f6e07d8cdab906f404dbca1bf502456d9730e24e48004198a776e719596015561018f604051938493604085526040850191610ca5565b9060208301520390a2005b5060405163b93204b760e01b81529182916101b9918560048501610cc5565b0390fd5b346100e25760203660031901126100e2576004355f525f602052602060ff600760405f200154166040519015158152f35b346100e2576101fc36610ad9565b919061020782610cdf565b815f525f60205261021f600660405f20018483610c8c565b916040519261022d84610b0c565b61023681610b97565b845261024460018201610b97565b93602081019485526002820154936040820194855261026560038401610b97565b936060830194855260ff600561027d60048701610b97565b95608086019687520154169760a08401981515895283515115610308575050506102fe926102cf96926102dd6102f0935197519651925191519451151596604051998a9960c08b5260c08b0190610a18565b9089820360208b0152610a18565b9160408801528682036060880152610a18565b908482036080860152610a18565b9060a08301520390f35b6101b99060405193849363b93204b760e01b855260048501610cc5565b346100e2575f3660031901126100e2576020600154604051908152f35b346100e25761035036610ad9565b919061035b82610cdf565b815f525f602052610373600660405f20018483610c8c565b9261037e8454610b5f565b156103cd5760057f277d87b869727f9eaea1381ffc63a3674cba7eef4e2009d7d4b95c4b6ffb3b2193940160ff1981541690556103c8604051928392602084526020840191610ca5565b0390a2005b60405163b93204b760e01b81529182916101b9918560048501610cc5565b346100e25760203660031901126100e2576004356001548110156100e257610414602091610ac1565b90549060031b1c604051908152f35b346100e25760403660031901126100e2576004356001600160401b0381116100e257610453903690600401610a94565b50506024356001600160401b0381116100e257610474903690600401610a94565b810190610120818303126100e25760208101356001600160a01b03811692823592918490036100e25760408201359060808301356001600160401b0381116100e257816104c2918501610d0b565b9160a08401356001600160401b0381116100e257826104e2918601610d0b565b9260c08501356001600160401b0381116100e25785019183601f840112156100e25782359261051084610b48565b9361051e6040519586610b27565b80855260208086019160051b830101918683116100e257602001905b8282106108b35750505060e08601356001600160401b0381116100e25784610563918801610d0b565b93610100870135906001600160401b0382116100e257610584918801610d0b565b90875f525f60205260ff600760405f200154166108a05788156108915782511561085e5782518651811490811591610885575b8115610879575b811561086d575b5061085e5797875f525f602052606060405f209789895560018901836bffffffffffffffffffffffff60a01b8254161790558a60028a01554260038a01550135600488015560078701600160ff198254161790555f906006600589019801915b84518110156107ed576106388186610dd2565b518954600160401b8110156107d95760018101808c558110156107c5578a5f5260205f20019061066791610de6565b6106718186610dd2565b5161067c828a610dd2565b51906106888389610dd2565b51610693848b610dd2565b5161069e8589610dd2565b5191604051936106ad85610b0c565b84526020840194855260408401908152606084019182526080840192835260a0840194600186526106de878c610dd2565b51604051818192516020819201835e81018b815203602001902094516107049086610de6565b516107129060018601610de6565b516002840155516107269060038401610de6565b516107349060048301610de6565b6005019051151560ff198254169060ff16179055896107538287610dd2565b5161075e8389610dd2565b519061076a848b610dd2565b51604051928392606084526060840161078291610a18565b906020840152828103604084015261079991610a18565b037fe179c7aea0ef47bb61c5502f5a87afaa640dd4f4c97d6e1be84fa1c7e97fa98491a2600101610625565b634e487b7160e01b5f52603260045260245ffd5b634e487b7160e01b5f52604160045260245ffd5b5088848b60015490600160401b8210156107d9577f25bee5063b2a922264e207d82efab5ad6b05550795e0f26ba6fe05cd7077543b9261083583600160609501600155610ac1565b81549060031b9087821b915f19901b1916179055516040519182526020820152426040820152a3005b630ffa118160e01b5f5260045ffd5b9050825114158a6105c5565b865181141591506105be565b855181141591506105b7565b630f58058360e11b5f5260045ffd5b8763c343b2ef60e01b5f5260045260245ffd5b813581526020918201910161053a565b346100e2575f3660031901126100e2576040517f00000000000000000000000000000000000000000000000000000000000000006001600160a01b03168152602090f35b346100e25760203660031901126100e25760043561092481610cdf565b5f525f60205261095061093c600560405f2001610c37565b604051918291602083526020830190610a3c565b0390f35b346100e25760203660031901126100e25760043563ffffffff60e01b81168091036100e25760209063402f909960e11b148015610996575b6040519015158152f35b61098c565b346100e25760203660031901126100e2576004356109b881610cdf565b5f525f60205260405f2060018060a01b036001820154166109506002830154926003810154906109ef600560048301549201610c37565b91604051958695865260208601526040850152606084015260a0608084015260a0830190610a3c565b805180835260209291819084018484015e5f828201840152601f01601f1916010190565b9080602083519182815201916020808360051b8301019401925f915b838310610a6757505050505090565b9091929394602080610a85600193601f198682030187528951610a18565b97019301930191939290610a58565b9181601f840112156100e2578235916001600160401b0383116100e257602083818601950101116100e257565b6001548110156107c55760015f5260205f2001905f90565b9060406003198301126100e25760043591602435906001600160401b0382116100e257610b0891600401610a94565b9091565b60c081019081106001600160401b038211176107d957604052565b90601f801991011681019081106001600160401b038211176107d957604052565b6001600160401b0381116107d95760051b60200190565b90600182811c92168015610b8d575b6020831014610b7957565b634e487b7160e01b5f52602260045260245ffd5b91607f1691610b6e565b9060405191825f825492610baa84610b5f565b8084529360018116908115610c155750600114610bd1575b50610bcf92500383610b27565b565b90505f9291925260205f20905f915b818310610bf9575050906020610bcf928201015f610bc2565b6020919350806001915483858901015201910190918492610be0565b905060209250610bcf94915060ff191682840152151560051b8201015f610bc2565b908154610c4381610b48565b92610c516040519485610b27565b81845260208401905f5260205f205f915b838310610c6f5750505050565b600160208192610c7e85610b97565b815201920192019190610c62565b6020919283604051948593843782019081520301902090565b908060209392818452848401375f828201840152601f01601f1916010190565b604090610cdc949281528160208201520191610ca5565b90565b805f525f60205260ff600760405f2001541615610cf95750565b634607cd3160e11b5f5260045260245ffd5b9080601f830112156100e257813591610d2383610b48565b92610d316040519485610b27565b80845260208085019160051b830101918383116100e25760208101915b838310610d5d57505050505090565b82356001600160401b0381116100e257820185603f820112156100e2576020810135916001600160401b0383116107d957604051610da5601f8501601f191660200182610b27565b83815260408385010188106100e2575f602085819660408397018386013783010152815201920191610d4e565b80518210156107c55760209160051b010190565b91909182516001600160401b0381116107d957610e038254610b5f565b601f8111610ea3575b506020601f8211600114610e4557819293945f92610e3a575b50508160011b915f199060031b1c1916179055565b015190505f80610e25565b601f19821690835f52805f20915f5b818110610e8b57509583600195969710610e73575b505050811b019055565b01515f1960f88460031b161c191690555f8080610e69565b9192602060018192868b015181550194019201610e54565b81811115610e0c57825f5260205f20601f830160051c9060208410610eec575b81601f9101920160051c03905f5b828110610edf575050610e0c565b5f82820155600101610ed1565b5f9150610ec356fea26469706673582212200076017e31d3594afa70d13c4fef8d7bb677c56ad335626640f9c373b91cecc164736f6c63430008210033","linkReferences":{}},"methodIdentifiers":{"EXPECTED_AUTHOR()":"5780bd93","EXPECTED_WORKFLOW_NAME()":"d71d79fe","deactivateCovenant(bytes32,string)":"8aa1fef7","getCovenant(bytes32,string)":"8ef5c48d","getCovenantNames(bytes32)":"51d274de","getLoanSchema(bytes32)":"0137f493","getRegisteredLoanCount()":"8bb7e473","isLoanRegistered(bytes32)":"bc09792f","onReport(bytes,bytes)":"805f2132","registeredLoans(uint256)":"89f75e8a","supportsInterface(bytes4)":"01ffc9a7","updateCovenantThreshold(bytes32,string,uint256)":"c3d8b340"},"id":17}