{"abi":[{"type":"constructor","inputs":[{"name":"_expectedAuthor","type":"address","internalType":"address"},{"name":"_expectedWorkflowName","type":"bytes10","internalType":"bytes10"}],"stateMutability":"nonpayable"},{"type":"function","name":"EXPECTED_AUTHOR","inputs":[],"outputs":[{"name":"","type":"address","internalType":"address"}],"stateMutability":"view"},{"type":"function","name":"EXPECTED_WORKFLOW_NAME","inputs":[],"outputs":[{"name":"","type":"bytes10","internalType":"bytes10"}],"stateMutability":"view"},{"type":"function","name":"activeBreaches","inputs":[{"name":"","type":"uint256","internalType":"uint256"}],"outputs":[{"name":"","type":"bytes32","internalType":"bytes32"}],"stateMutability":"view"},{"type":"function","name":"breachCount","inputs":[{"name":"","type":"bytes32","internalType":"bytes32"}],"outputs":[{"name":"","type":"uint256","internalType":"uint256"}],"stateMutability":"view"},{"type":"function","name":"deactivateLoan","inputs":[{"name":"loanId","type":"bytes32","internalType":"bytes32"}],"outputs":[],"stateMutability":"nonpayable"},{"type":"function","name":"getActiveBreaches","inputs":[],"outputs":[{"name":"","type":"bytes32[]","internalType":"bytes32[]"}],"stateMutability":"view"},{"type":"function","name":"getCovenantStatus","inputs":[{"name":"loanId","type":"bytes32","internalType":"bytes32"},{"name":"covenantName","type":"string","internalType":"string"}],"outputs":[{"name":"status","type":"uint8","internalType":"enum LoanHealthFeed.CovenantStatus"},{"name":"calculatedValue","type":"uint256","internalType":"uint256"},{"name":"threshold","type":"uint256","internalType":"uint256"},{"name":"confidenceScore","type":"uint256","internalType":"uint256"},{"name":"trend","type":"uint8","internalType":"enum LoanHealthFeed.TrendIndicator"}],"stateMutability":"view"},{"type":"function","name":"getHistoricalReport","inputs":[{"name":"loanId","type":"bytes32","internalType":"bytes32"},{"name":"reportIndex","type":"uint256","internalType":"uint256"}],"outputs":[{"name":"overallStatus","type":"uint8","internalType":"enum LoanHealthFeed.CovenantStatus"},{"name":"overallTrend","type":"uint8","internalType":"enum LoanHealthFeed.TrendIndicator"},{"name":"overallConfidenceScore","type":"uint256","internalType":"uint256"},{"name":"reportTimestamp","type":"uint256","internalType":"uint256"},{"name":"riskNarrative","type":"string","internalType":"string"}],"stateMutability":"view"},{"type":"function","name":"getLatestCovenantReports","inputs":[{"name":"loanId","type":"bytes32","internalType":"bytes32"}],"outputs":[{"name":"","type":"tuple[]","internalType":"struct LoanHealthFeed.CovenantReport[]","components":[{"name":"covenantName","type":"string","internalType":"string"},{"name":"status","type":"uint8","internalType":"enum LoanHealthFeed.CovenantStatus"},{"name":"calculatedValue","type":"uint256","internalType":"uint256"},{"name":"threshold","type":"uint256","internalType":"uint256"},{"name":"confidenceScore","type":"uint256","internalType":"uint256"},{"name":"trend","type":"uint8","internalType":"enum LoanHealthFeed.TrendIndicator"},{"name":"notes","type":"string","internalType":"string"}]}],"stateMutability":"view"},{"type":"function","name":"getLatestReport","inputs":[{"name":"loanId","type":"bytes32","internalType":"bytes32"}],"outputs":[{"name":"overallStatus","type":"uint8","internalType":"enum LoanHealthFeed.CovenantStatus"},{"name":"overallTrend","type":"uint8","internalType":"enum LoanHealthFeed.TrendIndicator"},{"name":"overallConfidenceScore","type":"uint256","internalType":"uint256"},{"name":"reportTimestamp","type":"uint256","internalType":"uint256"},{"name":"reportIndex","type":"uint256","internalType":"uint256"},{"name":"riskNarrative","type":"string","internalType":"string"},{"name":"isActive","type":"bool","internalType":"bool"}],"stateMutability":"view"},{"type":"function","name":"getLoanSummary","inputs":[{"name":"loanId","type":"bytes32","internalType":"bytes32"}],"outputs":[{"name":"","type":"tuple","internalType":"struct LoanHealthFeed.LoanHealthSummary","components":[{"name":"loanId","type":"bytes32","internalType":"bytes32"},{"name":"overallStatus","type":"uint8","internalType":"enum LoanHealthFeed.CovenantStatus"},{"name":"overallTrend","type":"uint8","internalType":"enum LoanHealthFeed.TrendIndicator"},{"name":"overallConfidenceScore","type":"uint256","internalType":"uint256"},{"name":"lastUpdated","type":"uint256","internalType":"uint256"},{"name":"totalReports","type":"uint256","internalType":"uint256"},{"name":"totalBreaches","type":"uint256","internalType":"uint256"},{"name":"totalWarnings","type":"uint256","internalType":"uint256"}]}],"stateMutability":"view"},{"type":"function","name":"getMonitoredLoanCount","inputs":[],"outputs":[{"name":"","type":"uint256","internalType":"uint256"}],"stateMutability":"view"},{"type":"function","name":"getRecentStatusHistory","inputs":[{"name":"loanId","type":"bytes32","internalType":"bytes32"},{"name":"n","type":"uint256","internalType":"uint256"}],"outputs":[{"name":"statuses","type":"uint8[]","internalType":"enum LoanHealthFeed.CovenantStatus[]"},{"name":"timestamps","type":"uint256[]","internalType":"uint256[]"}],"stateMutability":"view"},{"type":"function","name":"isInBreach","inputs":[{"name":"","type":"bytes32","internalType":"bytes32"}],"outputs":[{"name":"","type":"bool","internalType":"bool"}],"stateMutability":"view"},{"type":"function","name":"isLoanInBreach","inputs":[{"name":"loanId","type":"bytes32","internalType":"bytes32"}],"outputs":[{"name":"","type":"bool","internalType":"bool"}],"stateMutability":"view"},{"type":"function","name":"isLoanMonitored","inputs":[{"name":"loanId","type":"bytes32","internalType":"bytes32"}],"outputs":[{"name":"","type":"bool","internalType":"bool"}],"stateMutability":"view"},{"type":"function","name":"monitoredLoans","inputs":[{"name":"","type":"uint256","internalType":"uint256"}],"outputs":[{"name":"","type":"bytes32","internalType":"bytes32"}],"stateMutability":"view"},{"type":"function","name":"onReport","inputs":[{"name":"metadata","type":"bytes","internalType":"bytes"},{"name":"report","type":"bytes","internalType":"bytes"}],"outputs":[],"stateMutability":"nonpayable"},{"type":"function","name":"reportCount","inputs":[{"name":"","type":"bytes32","internalType":"bytes32"}],"outputs":[{"name":"","type":"uint256","internalType":"uint256"}],"stateMutability":"view"},{"type":"function","name":"supportsInterface","inputs":[{"name":"interfaceId","type":"bytes4","internalType":"bytes4"}],"outputs":[{"name":"","type":"bool","internalType":"bool"}],"stateMutability":"pure"},{"type":"function","name":"warningCount","inputs":[{"name":"","type":"bytes32","internalType":"bytes32"}],"outputs":[{"name":"","type":"uint256","internalType":"uint256"}],"stateMutability":"view"},{"type":"event","name":"BreachResolved","inputs":[{"name":"loanId","type":"bytes32","indexed":true,"internalType":"bytes32"},{"name":"timestamp","type":"uint256","indexed":false,"internalType":"uint256"}],"anonymous":false},{"type":"event","name":"CovenantBreach","inputs":[{"name":"loanId","type":"bytes32","indexed":true,"internalType":"bytes32"},{"name":"covenantName","type":"string","indexed":false,"internalType":"string"},{"name":"calculatedValue","type":"uint256","indexed":false,"internalType":"uint256"},{"name":"threshold","type":"uint256","indexed":false,"internalType":"uint256"},{"name":"confidenceScore","type":"uint256","indexed":false,"internalType":"uint256"},{"name":"timestamp","type":"uint256","indexed":false,"internalType":"uint256"}],"anonymous":false},{"type":"event","name":"CovenantWarning","inputs":[{"name":"loanId","type":"bytes32","indexed":true,"internalType":"bytes32"},{"name":"covenantName","type":"string","indexed":false,"internalType":"string"},{"name":"calculatedValue","type":"uint256","indexed":false,"internalType":"uint256"},{"name":"threshold","type":"uint256","indexed":false,"internalType":"uint256"},{"name":"timestamp","type":"uint256","indexed":false,"internalType":"uint256"}],"anonymous":false},{"type":"event","name":"LoanHealthReportPublished","inputs":[{"name":"loanId","type":"bytes32","indexed":true,"internalType":"bytes32"},{"name":"reportIndex","type":"uint256","indexed":false,"internalType":"uint256"},{"name":"overallStatus","type":"uint8","indexed":false,"internalType":"enum LoanHealthFeed.CovenantStatus"},{"name":"overallTrend","type":"uint8","indexed":false,"internalType":"enum LoanHealthFeed.TrendIndicator"},{"name":"overallConfidenceScore","type":"uint256","indexed":false,"internalType":"uint256"},{"name":"timestamp","type":"uint256","indexed":false,"internalType":"uint256"}],"anonymous":false},{"type":"event","name":"LoanMonitoringActivated","inputs":[{"name":"loanId","type":"bytes32","indexed":true,"internalType":"bytes32"},{"name":"timestamp","type":"uint256","indexed":false,"internalType":"uint256"}],"anonymous":false},{"type":"event","name":"LoanMonitoringDeactivated","inputs":[{"name":"loanId","type":"bytes32","indexed":true,"internalType":"bytes32"},{"name":"timestamp","type":"uint256","indexed":false,"internalType":"uint256"}],"anonymous":false},{"type":"error","name":"ArrayLengthMismatch","inputs":[{"name":"loanId","type":"bytes32","internalType":"bytes32"}]},{"type":"error","name":"AtleastOneCovenantRequired","inputs":[{"name":"loanId","type":"bytes32","internalType":"bytes32"}]},{"type":"error","name":"InvalidAuthor","inputs":[{"name":"received","type":"address","internalType":"address"},{"name":"expected","type":"address","internalType":"address"}]},{"type":"error","name":"InvalidConfidenceScore","inputs":[{"name":"loanId","type":"bytes32","internalType":"bytes32"},{"name":"score","type":"uint256","internalType":"uint256"}]},{"type":"error","name":"InvalidWorkflowName","inputs":[{"name":"received","type":"bytes10","internalType":"bytes10"},{"name":"expected","type":"bytes10","internalType":"bytes10"}]},{"type":"error","name":"LoanNotMonitored","inputs":[{"name":"loanId","type":"bytes32","internalType":"bytes32"}]}],"bytecode":{"object":"0x60c034608857601f61215838819003918201601f19168301916001600160401b03831184841017608c5780849260409485528339810103126088578051906001600160a01b038216820360885760200151906001600160b01b03198216820360885760805260a0526040516120b790816100a1823960805181611615015260a051816103650152f35b5f80fd5b634e487b7160e01b5f52604160045260245ffdfe6080806040526004361015610012575f80fd5b5f3560e01c90816301ffc9a7146118b957508063203830b11461188b578063233eaca81461185357806329b5e21b1461179d5780633dd591371461176e57806347bac1fc1461176e5780634def3188146116b257806351a34f79146116445780635780bd931461160057806357eebf31146114bf578063629868511461144557806363604d8914611428578063805f2132146106be578063835369c314610694578063bd8f63ea146104d0578063cf1a2058146104a6578063d4e24d3814610395578063d71d79fe14610350578063d750b20214610326578063e21fcc9c146101675763fbf4697514610103575f80fd5b346101635760203660031901126101635760043561012081611c6a565b805f526001602052600860405f200160ff1981541690557f8b6656e2b6ad941d2ad4bcff13a5868a31e9700c209e828b40849e7c0393a0df6020604051428152a2005b5f80fd5b346101635761017536611999565b61017e82611c6a565b815f52600360205260405f2054908181115f1461030d575090815b6101a283611c3f565b916101b060405193846119e6565b8383526101bc84611c3f565b602084019190601f19013683376101d285611c3f565b946101e060405196876119e6565b8086526101ec81611c3f565b602087019490601f19013686375f5b82811061028f5750505050604051938493604085019060408652518091526060850192905f5b818110610266575050506020908483038286015251918281520191905f5b81811061024d575050500390f35b825184528594506020938401939092019160010161023f565b919495509192602080600192875161027d8161192a565b81520195019101918695949392610221565b5f979495969750828203908282116102f9578082018092116102f957600191855f52600260205260405f20905f526020528160405f2060ff6003820154166102d7848d611c56565b6102e08261192a565b5201546102ed8288611c56565b520196959493966101fb565b634e487b7160e01b5f52601160045260245ffd5b6014811115610321575060145b9190610199565b61031a565b34610163576020366003190112610163576004355f526003602052602060405f2054604051908152f35b34610163575f366003190112610163576040517f00000000000000000000000000000000000000000000000000000000000000006001600160b01b0319168152602090f35b34610163576103a336611999565b906103ad81611c6a565b805f52600360205260405f205482101561044f575f52600260205260405f20905f5260205260405f2060ff60038201541661044b600760ff60058501541693600681015461041160018301549261040a6040518096819301611a3f565b03846119e6565b6040519585610420889761192a565b865261042b8161192a565b60208601526040850152606084015260a0608084015260a0830190611948565b0390f35b60405162461bcd60e51b815260206004820152602960248201527f4c6f616e4865616c7468466565643a205265706f727420696e646578206f7574604482015268206f662072616e676560b81b6064820152608490fd5b34610163576020366003190112610163576004355f526004602052602060405f2054604051908152f35b34610163576020366003190112610163576004356104ed81611c6a565b5f526001602052600460405f200180549061050782611c3f565b9161051560405193846119e6565b8083526020830180925f5260205f205f915b8383106105f857848660405191829160208301906020845251809152604083019060408160051b85010192915f905b82821061056557505050500390f35b919360019193955060206105e88192603f198a820301865288519060c0610595835160e0845260e0840190611948565b92858101516105a38161192a565b8684015260408101516040840152606081015160608401526080810151608084015260a08101516105d38161192a565b60a084015201519060c0818403910152611948565b9601920192018594939192610556565b6007602060019260405161060b816119cb565b6040516106238161061c818a611a3f565b03826119e6565b815260ff85870154166106358161192a565b8382015260028601546040820152600386015460608201526004860154608082015260ff6005870154166106688161192a565b60a08201526040516106818161061c8160068b01611a3f565b60c0820152815201920192019190610527565b34610163576020366003190112610163576004355f526006602052602060405f2054604051908152f35b34610163576040366003190112610163576004356001600160401b038111610163576106ee90369060040161196c565b50506024356001600160401b0381116101635761070f90369060040161196c565b810190602081830312610163578035906001600160401b03821161016357019061018082820312610163576040519161018083018381106001600160401b03821117610e64576040528035835260208101356003811015610163576020840152604081013560038110156101635760408401526060810135606084015260808101356001600160401b03811161016357826107ab918301611c93565b916080840192835260a08201356001600160401b03811161016357816107d2918401611cb1565b60a085015260c08201356001600160401b03811161016357820181601f8201121561016357803561080281611c3f565b9161081060405193846119e6565b81835260208084019260051b8201019084821161016357602001915b81831061140f5750505060c085015260e08201356001600160401b038111610163578161085a918401611d2f565b60e08501526101008201356001600160401b038111610163578161087f918401611d2f565b6101008501526101208201356001600160401b03811161016357816108a5918401611d2f565b6101208501526101408201356001600160401b03811161016357820181601f820112156101635780356108d781611c3f565b916108e560405193846119e6565b81835260208084019260051b8201019084821161016357602001915b8183106113f6575050506101408501526101608201356001600160401b0381116101635761092f9201611cb1565b61016083015260a082015151156113e25760a08201515160c0830151518114908115916113d2575b81156113c1575b81156113b0575b811561139f575b811561138e575b5061137a57606082015160648111611363575081515f52600360205260405f205482515f52600260205260405f20815f5260205260405f2091835183554260018401558160028401556109d660208501516109cd8161192a565b60038501611d8c565b6109f060408501516109e78161192a565b60058501611d8c565b60608401516006840155519283516001600160401b038111610e6457610a2681610a1d6007870154611a07565b60078701611dbf565b6020601f82116001146112f7578190610a57939495965f926112ec575b50508160011b915f199060031b1c19161790565b600784015591905b60088201805460ff191660011790555f925b60a08101518051851015610ef35784610a8991611c56565b5193610a998160c0840151611c56565b51610aa38161192a565b610ab18260e0850151611c56565b51610ac183610100860151611c56565b51610ad184610120870151611c56565b5190610ae285610140880151611c56565b5192610aed8461192a565b610afc86610160890151611c56565b51946040519a610b0b8c6119cb565b8b52610b168161192a565b60208b015260408a015260608901526080880152610b338161192a565b60a087015260c08601526004840154600160401b811015610e6457806001610b649201600487015560048601611ac0565b959095610ee05780518051906001600160401b038211610e6457610b9282610b8c8a54611a07565b8a611dbf565b602090601f8311600114610e78579180610bc49260c095945f92610deb5750508160011b915f199060031b1c19161790565b87555b610be16020820151610bd88161192a565b60018901611d8c565b604081015160028801556060810151600388015560808101516004880155610c1960a0820151610c108161192a565b60058901611d8c565b01519485516001600160401b038111610e6457610c4681610c3d6006850154611a07565b60068501611dbf565b6020601f8211600114610df65781600692610c7b9260019798999a5f92610deb5750508160011b915f199060031b1c19161790565b9101555b6002610c8f8260c0860151611c56565b51610c998161192a565b610ca28161192a565b03610d435782517fa49c7c39ef0643ef5e3e4fdab44315da56fbb74ed8fced74a722d6884704e5d0610d20610cdb8460a0880151611c56565b51610cea8560e0890151611c56565b51610cfa866101008a0151611c56565b51610d0a876101208b0151611c56565b519060405194859460a0865260a0860190611948565b926020850152604084015260608301524260808301520390a25b01929190610a71565b81610d528260c0860151611c56565b51610d5c8161192a565b610d658161192a565b03610d3a5782517faf50394f2a8744ad52dfb5a388efda1ba27ef8b3c22968a66de518b1da18efa6610dd2610d9e8460a0880151611c56565b51610dad8560e0890151611c56565b51610dbd866101008a0151611c56565b51604051938493608085526080850190611948565b91602084015260408301524260608301520390a2610d3a565b015190508a80610a43565b600683015f52805f20975f5b601f1984168110610e4c575091600195969798869260069483601f19811610610e34575b505050811b01910155610c7f565b01515f1960f88460031b161c19169055898080610e26565b828201518a5560019099019860209283019201610e02565b634e487b7160e01b5f52604160045260245ffd5b90885f52805f20915f5b601f1985168110610ec8575091839160019360c09695601f19811610610eb0575b505050811b018755610bc7565b01515f1960f88460031b161c19169055898080610ea3565b91926020600181928685015181550194019201610e82565b634e487b7160e01b5f525f60045260245ffd5b509182515f52600160205260405f20818103611264575b505081515f52600360205260405f20610f238154612073565b905560026020830151610f358161192a565b610f3e8161192a565b036112285781515f52600460205260405f20610f5a8154612073565b90555b81516020830151610f6d8161192a565b815f52600860205260ff60405f20541690610f878161192a565b60028114908180611220575b1561111857505050805f52600860205260405f20600160ff19825416179055600754600160401b811015610e6457610fd6816001610fec93016007556007611915565b819391549060031b91821b915f19901b19161790565b90555b81515f525f60205260ff60405f2054161561107f575b60a07f162277fae25a18f61c580823c5d0a4de9d6b7dfd3f9df5b61f543655c3b7ff5f9183519360208101519061103b8261192a565b606060408201519161104c8361192a565b01519160405193845261105e8161192a565b602084015261106c8161192a565b60408301526060820152426080820152a2005b81515f525f60205260405f20600160ff1982541617905581519060055490600160401b821015610e64577f162277fae25a18f61c580823c5d0a4de9d6b7dfd3f9df5b61f543655c3b7ff5f926110e2610fd684600160a096016005556005611915565b905583517f861ef34e34cf945c5e1118b1f77579f16707785a47d4d547c4596a34dbfa8d706020604051428152a2915050611005565b6111219061192a565b159081611218575b50611135575b50610fef565b90815f52600860205260405f2060ff198154169055600754915f5b83811061118c575b509091507fcf8bf87096ae3e08f7fa43e7cb33c87aba249d49ec23d20b3b5c5748acde4d556020604051428152a28261112f565b81611196826118fd565b90549060031b1c146111aa57600101611150565b9091925f1981019081116102f957610fd66111c76111d4926118fd565b90549060031b1c926118fd565b90556007548015611204575f19016111eb816118fd565b8154905f199060031b1b19169055600755819084611158565b634e487b7160e01b5f52603160045260245ffd5b905084611129565b508215610f93565b600160208301516112388161192a565b6112418161192a565b03610f5d5781515f52600660205260405f2061125d8154612073565b9055610f5d565b60088060ff928454815560018501546001820155600285015460028201556112958460038701541660038301611d8c565b6112a56004860160048301611f3c565b6112b88460058701541660058301611d8c565b600685015460068201556112d26007860160078301611e5d565b0192015416151560ff801983541691161790558280610f0a565b015190508680610a43565b600785015f52805f20905f5b601f198416811061134b575060019394959683601f19811610611333575b505050811b0160078401559190610a5f565b01515f1960f88460031b161c19169055858080611321565b9091602060018192858b015181550193019101611303565b8251633347396160e21b5f5260045260245260445ffd5b5051634c35e9b360e11b5f5260045260245ffd5b905061016083015151141583610973565b61014084015151811415915061096c565b610120840151518114159150610965565b61010084015151811415915061095e565b60e0840151518114159150610957565b5051630b1a688d60e11b5f5260045260245ffd5b8235600381101561016357815260209283019201610901565b823560038110156101635781526020928301920161082c565b34610163575f366003190112610163576020600554604051908152f35b34610163576040366003190112610163576004356024356001600160401b0381116101635760a09161147e61148d92369060040161196c565b9161148881611c6a565b611b1e565b926040929192519461149e8161192a565b85526020850152604084015260608301526114b88161192a565b6080820152f35b34610163576020366003190112610163576101006004355f60e06040516114e5816119af565b8281528260208201528260408201528260608201528260808201528260a08201528260c0820152015261151781611c6a565b805f52600160205260405f2060ff6003820154169060ff6005820154169060016006820154910154845f52600360205260405f205491855f52600460205260405f205493865f52600660205260405f20549560405197611576896119af565b885260208801906115868161192a565b815260408801916115968161192a565b8252606088019283526080880193845260a0880194855260c0880195865260e0880196875260405197518852516115cc8161192a565b6020880152516115db8161192a565b60408701525160608601525160808501525160a08401525160c08301525160e0820152f35b34610163575f366003190112610163576040517f00000000000000000000000000000000000000000000000000000000000000006001600160a01b03168152602090f35b34610163576020366003190112610163576004356005548110156101635760055481101561169e5760055f527f036b6384b5eca791c62761152d0c79bb0604c104a5fb6f4eb0703f3154bb3db00154604051908152602090f35b634e487b7160e01b5f52603260045260245ffd5b34610163576020366003190112610163576004356116cf81611c6a565b5f52600160205260405f2060ff60038201541660ff6005830154169161176260076006830154600184015460028501549161172360ff6008880154169661171c6040518097819301611a3f565b03856119e6565b60405197876117328a9961192a565b885261173d8161192a565b602088015260408701526060860152608085015260e060a085015260e0840190611948565b90151560c08301520390f35b34610163576020366003190112610163576004355f526008602052602060ff60405f2054166040519015158152f35b34610163575f366003190112610163576040518060206007549283815201809260075f527fa66cc928b5edb82af9bd49922954155ab7b0942694bea4ce44661d9a8736c688905f5b81811061183d57505050816117fb9103826119e6565b604051918291602083019060208452518091526040830191905f5b818110611824575050500390f35b8251845285945060209384019390920191600101611816565b82548452602090930192600192830192016117e5565b34610163576020366003190112610163576004356007548110156101635761187c6020916118fd565b90549060031b1c604051908152f35b34610163576020366003190112610163576004355f525f602052602060ff60405f2054166040519015158152f35b34610163576020366003190112610163576004359063ffffffff60e01b82168092036101635760209163402f909960e11b1480156118f8575b15158152f35b6118f2565b60075481101561169e5760075f5260205f2001905f90565b805482101561169e575f5260205f2001905f90565b6003111561193457565b634e487b7160e01b5f52602160045260245ffd5b805180835260209291819084018484015e5f828201840152601f01601f1916010190565b9181601f84011215610163578235916001600160401b038311610163576020838186019501011161016357565b6040906003190112610163576004359060243590565b61010081019081106001600160401b03821117610e6457604052565b60e081019081106001600160401b03821117610e6457604052565b90601f801991011681019081106001600160401b03821117610e6457604052565b90600182811c92168015611a35575b6020831014611a2157565b634e487b7160e01b5f52602260045260245ffd5b91607f1691611a16565b5f9291815491611a4e83611a07565b8083529260018116908115611aa35750600114611a6a57505050565b5f9081526020812093945091925b838310611a89575060209250010190565b600181602092949394548385870101520191019190611a78565b915050602093945060ff929192191683830152151560051b010190565b805482101561169e575f52600760205f20910201905f90565b9291926001600160401b038211610e645760405191611b02601f8201601f1916602001846119e6565b829481845281830111610163578281602093845f960137010152565b9190915f526001602052600460405f2001905f928254935b848110611b9e5760405162461bcd60e51b815260206004820152603360248201527f4c6f616e4865616c7468466565643a20436f76656e616e74206e6f7420666f756044820152721b99081a5b881b185d195cdd081c995c1bdc9d606a1b6064820152608490fd5b61061c611bbb611bae8387611ac0565b5060405192838092611a3f565b60208151910120611bcd368585611ad9565b6020815191012014611be157600101611b36565b9350505060ff6001611bf38484611ac0565b500154166002611c038484611ac0565b5001549360ff6005611c336003611c1a8888611ac0565b500154966004611c2a8289611ac0565b50015496611ac0565b50015416919493929190565b6001600160401b038111610e645760051b60200190565b805182101561169e5760209160051b010190565b805f525f60205260ff60405f20541615611c815750565b6304472d1360e21b5f5260045260245ffd5b9080601f8301121561016357816020611cae93359101611ad9565b90565b9080601f83011215610163578135611cc881611c3f565b92611cd660405194856119e6565b81845260208085019260051b820101918383116101635760208201905b838210611d0257505050505090565b81356001600160401b03811161016357602091611d2487848094880101611c93565b815201910190611cf3565b9080601f83011215610163578135611d4681611c3f565b92611d5460405194856119e6565b81845260208085019260051b82010192831161016357602001905b828210611d7c5750505090565b8135815260209182019101611d6f565b90611d968161192a565b60ff80198354169116179055565b5f5b828110611db257505050565b5f82820155600101611da6565b91601f8211611dcd57505050565b808211611dd957505050565b611e04925f5260205f20916020601f830160051c9210611e06575b601f82910160051c039101611da4565b565b5f9150611df4565b611e188154611a07565b9081611e22575050565b81601f5f9311600114611e33575055565b81835260208320611e5091601f0160051c84190190600101611da4565b8082528160208120915555565b919091828114611f3757611e718354611a07565b6001600160401b038111610e6457611e9381611e8d8454611a07565b84611dbf565b5f93601f8211600114611ed157611ec292939482915f92611ec65750508160011b915f199060031b1c19161790565b9055565b015490505f80610a43565b601f198216905f5260205f2094835f5260205f20915f5b818110611f1f57509583600195969710611f07575b505050811b019055565b01545f1960f88460031b161c191690555f8080611efd565b9192600180602092868b015481550194019201611ee8565b509050565b81811461206f57815491600160401b8311610e64578154838355808410611ff9575b505f5260205f20905f5260205f205f915b838310611f7c5750505050565b600780826001938503611f96575b01920192019190611f6f565b611fa08186611e5d565b611fb260ff8583015416858701611d8c565b600281015460028601556003810154600386015560048101546004860155611fe460ff60058301541660058701611d8c565b611ff46006820160068701611e5d565b611f8a565b806007029060078204036102f957836007026007810485036102f957835f528060205f20019103905f5b828110612031575050611f5e565b806120696006600793850161204581611e0e565b5f60018201555f60028201555f60038201555f60048201555f600582015501611e0e565b01612023565b5050565b5f1981146102f9576001019056fea26469706673582212208e3cb4508792a517948e7f13d1cd639aa1efd4f2616913af8a74fb66c111d18364736f6c63430008210033","linkReferences":{}},"methodIdentifiers":{"EXPECTED_AUTHOR()":"5780bd93","EXPECTED_WORKFLOW_NAME()":"d71d79fe","activeBreaches(uint256)":"233eaca8","breachCount(bytes32)":"cf1a2058","deactivateLoan(bytes32)":"fbf46975","getActiveBreaches()":"29b5e21b","getCovenantStatus(bytes32,string)":"62986851","getHistoricalReport(bytes32,uint256)":"d4e24d38","getLatestCovenantReports(bytes32)":"bd8f63ea","getLatestReport(bytes32)":"4def3188","getLoanSummary(bytes32)":"57eebf31","getMonitoredLoanCount()":"63604d89","getRecentStatusHistory(bytes32,uint256)":"e21fcc9c","isInBreach(bytes32)":"47bac1fc","isLoanInBreach(bytes32)":"3dd59137","isLoanMonitored(bytes32)":"203830b1","monitoredLoans(uint256)":"51a34f79","onReport(bytes,bytes)":"805f2132","reportCount(bytes32)":"d750b202","supportsInterface(bytes4)":"01ffc9a7","warningCount(bytes32)":"835369c3"},"id":16}